{
  "contractName": "DocToken",
  "abi": [
    {
      "constant": true,
      "inputs": [],
      "name": "name",
      "outputs": [
        {
          "name": "",
          "type": "string"
        }
      ],
      "payable": false,
      "stateMutability": "view",
      "type": "function"
    },
    {
      "constant": false,
      "inputs": [
        {
          "name": "spender",
          "type": "address"
        },
        {
          "name": "value",
          "type": "uint256"
        }
      ],
      "name": "approve",
      "outputs": [
        {
          "name": "",
          "type": "bool"
        }
      ],
      "payable": false,
      "stateMutability": "nonpayable",
      "type": "function"
    },
    {
      "constant": true,
      "inputs": [],
      "name": "totalSupply",
      "outputs": [
        {
          "name": "",
          "type": "uint256"
        }
      ],
      "payable": false,
      "stateMutability": "view",
      "type": "function"
    },
    {
      "constant": false,
      "inputs": [
        {
          "name": "sender",
          "type": "address"
        },
        {
          "name": "recipient",
          "type": "address"
        },
        {
          "name": "amount",
          "type": "uint256"
        }
      ],
      "name": "transferFrom",
      "outputs": [
        {
          "name": "",
          "type": "bool"
        }
      ],
      "payable": false,
      "stateMutability": "nonpayable",
      "type": "function"
    },
    {
      "constant": true,
      "inputs": [],
      "name": "decimals",
      "outputs": [
        {
          "name": "",
          "type": "uint8"
        }
      ],
      "payable": false,
      "stateMutability": "view",
      "type": "function"
    },
    {
      "constant": false,
      "inputs": [
        {
          "name": "spender",
          "type": "address"
        },
        {
          "name": "addedValue",
          "type": "uint256"
        }
      ],
      "name": "increaseAllowance",
      "outputs": [
        {
          "name": "",
          "type": "bool"
        }
      ],
      "payable": false,
      "stateMutability": "nonpayable",
      "type": "function"
    },
    {
      "constant": false,
      "inputs": [
        {
          "name": "account",
          "type": "address"
        },
        {
          "name": "amount",
          "type": "uint256"
        }
      ],
      "name": "mint",
      "outputs": [
        {
          "name": "",
          "type": "bool"
        }
      ],
      "payable": false,
      "stateMutability": "nonpayable",
      "type": "function"
    },
    {
      "constant": true,
      "inputs": [
        {
          "name": "account",
          "type": "address"
        }
      ],
      "name": "balanceOf",
      "outputs": [
        {
          "name": "",
          "type": "uint256"
        }
      ],
      "payable": false,
      "stateMutability": "view",
      "type": "function"
    },
    {
      "constant": false,
      "inputs": [],
      "name": "renounceOwnership",
      "outputs": [],
      "payable": false,
      "stateMutability": "nonpayable",
      "type": "function"
    },
    {
      "constant": true,
      "inputs": [],
      "name": "owner",
      "outputs": [
        {
          "name": "",
          "type": "address"
        }
      ],
      "payable": false,
      "stateMutability": "view",
      "type": "function"
    },
    {
      "constant": true,
      "inputs": [],
      "name": "isOwner",
      "outputs": [
        {
          "name": "",
          "type": "bool"
        }
      ],
      "payable": false,
      "stateMutability": "view",
      "type": "function"
    },
    {
      "constant": true,
      "inputs": [],
      "name": "symbol",
      "outputs": [
        {
          "name": "",
          "type": "string"
        }
      ],
      "payable": false,
      "stateMutability": "view",
      "type": "function"
    },
    {
      "constant": false,
      "inputs": [
        {
          "name": "account",
          "type": "address"
        }
      ],
      "name": "addMinter",
      "outputs": [],
      "payable": false,
      "stateMutability": "nonpayable",
      "type": "function"
    },
    {
      "constant": false,
      "inputs": [],
      "name": "renounceMinter",
      "outputs": [],
      "payable": false,
      "stateMutability": "nonpayable",
      "type": "function"
    },
    {
      "constant": false,
      "inputs": [
        {
          "name": "who",
          "type": "address"
        },
        {
          "name": "value",
          "type": "uint256"
        }
      ],
      "name": "burn",
      "outputs": [],
      "payable": false,
      "stateMutability": "nonpayable",
      "type": "function"
    },
    {
      "constant": false,
      "inputs": [
        {
          "name": "spender",
          "type": "address"
        },
        {
          "name": "subtractedValue",
          "type": "uint256"
        }
      ],
      "name": "decreaseAllowance",
      "outputs": [
        {
          "name": "",
          "type": "bool"
        }
      ],
      "payable": false,
      "stateMutability": "nonpayable",
      "type": "function"
    },
    {
      "constant": false,
      "inputs": [
        {
          "name": "recipient",
          "type": "address"
        },
        {
          "name": "amount",
          "type": "uint256"
        }
      ],
      "name": "transfer",
      "outputs": [
        {
          "name": "",
          "type": "bool"
        }
      ],
      "payable": false,
      "stateMutability": "nonpayable",
      "type": "function"
    },
    {
      "constant": true,
      "inputs": [
        {
          "name": "account",
          "type": "address"
        }
      ],
      "name": "isMinter",
      "outputs": [
        {
          "name": "",
          "type": "bool"
        }
      ],
      "payable": false,
      "stateMutability": "view",
      "type": "function"
    },
    {
      "constant": true,
      "inputs": [
        {
          "name": "owner",
          "type": "address"
        },
        {
          "name": "spender",
          "type": "address"
        }
      ],
      "name": "allowance",
      "outputs": [
        {
          "name": "",
          "type": "uint256"
        }
      ],
      "payable": false,
      "stateMutability": "view",
      "type": "function"
    },
    {
      "constant": false,
      "inputs": [
        {
          "name": "newOwner",
          "type": "address"
        }
      ],
      "name": "transferOwnership",
      "outputs": [],
      "payable": false,
      "stateMutability": "nonpayable",
      "type": "function"
    },
    {
      "inputs": [],
      "payable": false,
      "stateMutability": "nonpayable",
      "type": "constructor"
    },
    {
      "payable": false,
      "stateMutability": "nonpayable",
      "type": "fallback"
    },
    {
      "anonymous": false,
      "inputs": [
        {
          "indexed": true,
          "name": "account",
          "type": "address"
        }
      ],
      "name": "MinterAdded",
      "type": "event"
    },
    {
      "anonymous": false,
      "inputs": [
        {
          "indexed": true,
          "name": "account",
          "type": "address"
        }
      ],
      "name": "MinterRemoved",
      "type": "event"
    },
    {
      "anonymous": false,
      "inputs": [
        {
          "indexed": true,
          "name": "from",
          "type": "address"
        },
        {
          "indexed": true,
          "name": "to",
          "type": "address"
        },
        {
          "indexed": false,
          "name": "value",
          "type": "uint256"
        }
      ],
      "name": "Transfer",
      "type": "event"
    },
    {
      "anonymous": false,
      "inputs": [
        {
          "indexed": true,
          "name": "owner",
          "type": "address"
        },
        {
          "indexed": true,
          "name": "spender",
          "type": "address"
        },
        {
          "indexed": false,
          "name": "value",
          "type": "uint256"
        }
      ],
      "name": "Approval",
      "type": "event"
    },
    {
      "anonymous": false,
      "inputs": [
        {
          "indexed": true,
          "name": "previousOwner",
          "type": "address"
        },
        {
          "indexed": true,
          "name": "newOwner",
          "type": "address"
        }
      ],
      "name": "OwnershipTransferred",
      "type": "event"
    }
  ],
  "bytecode": "0x60c0604052600f60808190527f446f6c6c6172206f6e20436861696e000000000000000000000000000000000060a0908152620000409160089190620003ec565b506040805180820190915260038082527f444f43000000000000000000000000000000000000000000000000000000000060209092019182526200008791600991620003ec565b50600a805460ff19166012179055348015620000a257600080fd5b506008805460408051602060026001851615610100026000190190941693909304601f810184900484028201840190925281815292918301828280156200012d5780601f1062000101576101008083540402835291602001916200012d565b820191906000526020600020905b8154815290600101906020018083116200010f57829003601f168201915b505060098054604080516020601f6002600019610100600188161502019095169490940493840181900481028201810190925282815295509193509150830182828015620001bf5780601f106200019357610100808354040283529160200191620001bf565b820191906000526020600020905b815481529060010190602001808311620001a157829003601f168201915b5050600a5460008054600160a060020a031916331780825560405160ff9093169550600160a060020a0316935091507f8be0079c531659141344cd1fd0a4f28419497f9722a3daafe3b4186f6b6457e0908290a3825162000228906001906020860190620003ec565b5081516200023e906002906020850190620003ec565b506003805460ff191660ff92909216919091179055506200026a90503364010000000062000270810204565b62000491565b6200028b60078264010000000062000e8b620002c282021704565b604051600160a060020a038216907f6ae172837ea30b801fbfcdd4108aa1d5bf8ff775444fd70256b44e6bf3dfc3f690600090a250565b620002d7828264010000000062000369810204565b156200034457604080517f08c379a000000000000000000000000000000000000000000000000000000000815260206004820152601f60248201527f526f6c65733a206163636f756e7420616c72656164792068617320726f6c6500604482015290519081900360640190fd5b600160a060020a0316600090815260209190915260409020805460ff19166001179055565b6000600160a060020a038216620003cc576040517f08c379a0000000000000000000000000000000000000000000000000000000008152600401808060200182810382526022815260200180620015ee6022913960400191505060405180910390fd5b50600160a060020a03166000908152602091909152604090205460ff1690565b828054600181600116156101000203166002900490600052602060002090601f016020900481019282601f106200042f57805160ff19168380011785556200045f565b828001600101855582156200045f579182015b828111156200045f57825182559160200191906001019062000442565b506200046d92915062000471565b5090565b6200048e91905b808211156200046d576000815560010162000478565b90565b61114d80620004a16000396000f3fe608060405234801561001057600080fd5b50600436106100ff5760e060020a600035046306fdde038114610101578063095ea7b31461017e57806318160ddd146101be57806323b872dd146101d8578063313ce5671461020e578063395093511461022c57806340c10f191461025857806370a0823114610284578063715018a6146102aa5780638da5cb5b146102b25780638f32d59b146102d657806395d89b41146102de578063983b2d56146102e6578063986502751461030c5780639dc29fac14610314578063a457c2d714610340578063a9059cbb1461036c578063aa271e1a14610398578063dd62ed3e146103be578063f2fde38b146103ec575b005b610109610412565b6040805160208082528351818301528351919283929083019185019080838360005b8381101561014357818101518382015260200161012b565b50505050905090810190601f1680156101705780820380516001836020036101000a031916815260200191505b509250505060405180910390f35b6101aa6004803603604081101561019457600080fd5b50600160a060020a0381351690602001356104a7565b604080519115158252519081900360200190f35b6101c66104bd565b60408051918252519081900360200190f35b6101aa600480360360608110156101ee57600080fd5b50600160a060020a038135811691602081013590911690604001356104c3565b61021661051a565b6040805160ff9092168252519081900360200190f35b6101aa6004803603604081101561024257600080fd5b50600160a060020a038135169060200135610523565b6101aa6004803603604081101561026e57600080fd5b50600160a060020a03813516906020013561055f565b6101c66004803603602081101561029a57600080fd5b5035600160a060020a03166105b2565b6100ff6105cd565b6102ba61064f565b60408051600160a060020a039092168252519081900360200190f35b6101aa61065e565b61010961066f565b6100ff600480360360208110156102fc57600080fd5b5035600160a060020a03166106cd565b6100ff610720565b6100ff6004803603604081101561032a57600080fd5b50600160a060020a03813516906020013561072b565b6101aa6004803603604081101561035657600080fd5b50600160a060020a038135169060200135610783565b6101aa6004803603604081101561038257600080fd5b50600160a060020a0381351690602001356107bf565b6101aa600480360360208110156103ae57600080fd5b5035600160a060020a03166107cc565b6101c6600480360360408110156103d457600080fd5b50600160a060020a03813581169160200135166107e5565b6100ff6004803603602081101561040257600080fd5b5035600160a060020a0316610810565b60018054604080516020601f6002600019610100878916150201909516949094049384018190048102820181019092528281526060939092909183018282801561049d5780601f106104725761010080835404028352916020019161049d565b820191906000526020600020905b81548152906001019060200180831161048057829003601f168201915b5050505050905090565b60006104b4338484610863565b50600192915050565b60065490565b60006104d0848484610955565b600160a060020a03841660009081526005602090815260408083203380855292529091205461051091869161050b908663ffffffff610a8d16565b610863565b5060019392505050565b60035460ff1690565b336000818152600560209081526040808320600160a060020a038716845290915281205490916104b491859061050b908663ffffffff610aed16565b600061056a336107cc565b6105a85760405160e560020a62461bcd028152600401808060200182810382526030815260200180610fe56030913960400191505060405180910390fd5b6104b48383610b51565b600160a060020a031660009081526004602052604090205490565b6105d561065e565b610617576040805160e560020a62461bcd0281526020600482018190526024820152600080516020611036833981519152604482015290519081900360640190fd5b60008054604051600160a060020a0390911690600080516020611056833981519152908390a360008054600160a060020a0319169055565b600054600160a060020a031690565b600054600160a060020a0316331490565b60028054604080516020601f600019610100600187161502019094168590049384018190048102820181019092528281526060939092909183018282801561049d5780601f106104725761010080835404028352916020019161049d565b6106d6336107cc565b6107145760405160e560020a62461bcd028152600401808060200182810382526030815260200180610fe56030913960400191505060405180910390fd5b61071d81610c34565b50565b61072933610c7c565b565b61073361065e565b610775576040805160e560020a62461bcd0281526020600482018190526024820152600080516020611036833981519152604482015290519081900360640190fd5b61077f8282610cc4565b5050565b336000818152600560209081526040808320600160a060020a038716845290915281205490916104b491859061050b908663ffffffff610a8d16565b60006104b4338484610955565b60006107df60078363ffffffff610d9016565b92915050565b600160a060020a03918216600090815260056020908152604080832093909416825291909152205490565b61081861065e565b61085a576040805160e560020a62461bcd0281526020600482018190526024820152600080516020611036833981519152604482015290519081900360640190fd5b61071d81610dfa565b600160a060020a0383166108ab5760405160e560020a62461bcd0281526004018080602001828103825260248152602001806110fe6024913960400191505060405180910390fd5b600160a060020a0382166108f35760405160e560020a62461bcd028152600401808060200182810382526022815260200180610fc36022913960400191505060405180910390fd5b600160a060020a03808416600081815260056020908152604080832094871680845294825291829020859055815185815291517f8c5be1e5ebec7d5bd14f71427d1e84f3dd0314c0f7b2291e5b200ac8c7c3b9259281900390910190a3505050565b600160a060020a03831661099d5760405160e560020a62461bcd0281526004018080602001828103825260258152602001806110d96025913960400191505060405180910390fd5b600160a060020a0382166109e55760405160e560020a62461bcd028152600401808060200182810382526023815260200180610f7a6023913960400191505060405180910390fd5b600160a060020a038316600090815260046020526040902054610a0e908263ffffffff610a8d16565b600160a060020a038085166000908152600460205260408082209390935590841681522054610a43908263ffffffff610aed16565b600160a060020a03808416600081815260046020908152604091829020949094558051858152905191939287169260008051602061109883398151915292918290030190a3505050565b600082821115610ae7576040805160e560020a62461bcd02815260206004820152601e60248201527f536166654d6174683a207375627472616374696f6e206f766572666c6f770000604482015290519081900360640190fd5b50900390565b600082820183811015610b4a576040805160e560020a62461bcd02815260206004820152601b60248201527f536166654d6174683a206164646974696f6e206f766572666c6f770000000000604482015290519081900360640190fd5b9392505050565b600160a060020a038216610baf576040805160e560020a62461bcd02815260206004820152601f60248201527f45524332303a206d696e7420746f20746865207a65726f206164647265737300604482015290519081900360640190fd5b600654610bc2908263ffffffff610aed16565b600655600160a060020a038216600090815260046020526040902054610bee908263ffffffff610aed16565b600160a060020a03831660008181526004602090815260408083209490945583518581529351929391926000805160206110988339815191529281900390910190a35050565b610c4560078263ffffffff610e8b16565b604051600160a060020a038216907f6ae172837ea30b801fbfcdd4108aa1d5bf8ff775444fd70256b44e6bf3dfc3f690600090a250565b610c8d60078263ffffffff610f0f16565b604051600160a060020a038216907fe94479a9f7e1952cc78f2d6baab678adc1b772d936c6583def489e524cb6669290600090a250565b600160a060020a038216610d0c5760405160e560020a62461bcd0281526004018080602001828103825260218152602001806110b86021913960400191505060405180910390fd5b600654610d1f908263ffffffff610a8d16565b600655600160a060020a038216600090815260046020526040902054610d4b908263ffffffff610a8d16565b600160a060020a038316600081815260046020908152604080832094909455835185815293519193600080516020611098833981519152929081900390910190a35050565b6000600160a060020a038216610dda5760405160e560020a62461bcd0281526004018080602001828103825260228152602001806110766022913960400191505060405180910390fd5b50600160a060020a03166000908152602091909152604090205460ff1690565b600160a060020a038116610e425760405160e560020a62461bcd028152600401808060200182810382526026815260200180610f9d6026913960400191505060405180910390fd5b60008054604051600160a060020a038085169392169160008051602061105683398151915291a360008054600160a060020a031916600160a060020a0392909216919091179055565b610e958282610d90565b15610eea576040805160e560020a62461bcd02815260206004820152601f60248201527f526f6c65733a206163636f756e7420616c72656164792068617320726f6c6500604482015290519081900360640190fd5b600160a060020a0316600090815260209190915260409020805460ff19166001179055565b610f198282610d90565b610f575760405160e560020a62461bcd0281526004018080602001828103825260218152602001806110156021913960400191505060405180910390fd5b600160a060020a0316600090815260209190915260409020805460ff1916905556fe45524332303a207472616e7366657220746f20746865207a65726f20616464726573734f776e61626c653a206e6577206f776e657220697320746865207a65726f206164647265737345524332303a20617070726f766520746f20746865207a65726f20616464726573734d696e746572526f6c653a2063616c6c657220646f6573206e6f74206861766520746865204d696e74657220726f6c65526f6c65733a206163636f756e7420646f6573206e6f74206861766520726f6c654f776e61626c653a2063616c6c6572206973206e6f7420746865206f776e65728be0079c531659141344cd1fd0a4f28419497f9722a3daafe3b4186f6b6457e0526f6c65733a206163636f756e7420697320746865207a65726f2061646472657373ddf252ad1be2c89b69c2b068fc378daa952ba7f163c4a11628f55a4df523b3ef45524332303a206275726e2066726f6d20746865207a65726f206164647265737345524332303a207472616e736665722066726f6d20746865207a65726f206164647265737345524332303a20617070726f76652066726f6d20746865207a65726f2061646472657373a165627a7a72305820f496117be46f0842350b0fc51ce67ab3db1e1e2c0fe9d31fa34faddf5c218ccb0029526f6c65733a206163636f756e7420697320746865207a65726f2061646472657373",
  "source": "pragma solidity 0.5.8;\n\nimport \"openzeppelin-solidity/contracts/token/ERC20/ERC20Detailed.sol\";\nimport \"./OwnerBurnableToken.sol\";\n\ncontract DocToken is ERC20Detailed, OwnerBurnableToken {\n\n  string private _name = \"Dollar on Chain\";\n  string private _symbol = \"DOC\";\n  uint8 private _decimals = 18;\n\n  constructor() Ownable() ERC20Detailed(_name, _symbol, _decimals) public {\n\n  }\n\n  //Fallback\n  function() external {\n  }\n}\n",
  "sourcePath": "/home/bruno/Proyectos/Cripto/MoC/main-RBTC-contract/contracts/token/DocToken.sol",
  "compiler": {
    "name": "solc",
    "version": "0.5.8+commit.23d335f2.Emscripten.clang"
  },
  "schemaVersion": "3.0.11",
  "updatedAt": "2020-05-02T13:11:46.787Z",
  "devdoc": {
    "methods": {
      "allowance(address,address)": {
        "details": "See `IERC20.allowance`."
      },
      "approve(address,uint256)": {
        "details": "See `IERC20.approve`.     * Requirements:     * - `spender` cannot be the zero address."
      },
      "balanceOf(address)": {
        "details": "See `IERC20.balanceOf`."
      },
      "burn(address,uint256)": {
        "details": "Burns a specific amount of tokens for the address.",
        "params": {
          "value": "The amount of token to be burned.",
          "who": "who's tokens are gona be burned"
        }
      },
      "decimals()": {
        "details": "Returns the number of decimals used to get its user representation. For example, if `decimals` equals `2`, a balance of `505` tokens should be displayed to a user as `5,05` (`505 / 10 ** 2`).     * Tokens usually opt for a value of 18, imitating the relationship between Ether and Wei.     * > Note that this information is only used for _display_ purposes: it in no way affects any of the arithmetic of the contract, including `IERC20.balanceOf` and `IERC20.transfer`."
      },
      "decreaseAllowance(address,uint256)": {
        "details": "Atomically decreases the allowance granted to `spender` by the caller.     * This is an alternative to `approve` that can be used as a mitigation for problems described in `IERC20.approve`.     * Emits an `Approval` event indicating the updated allowance.     * Requirements:     * - `spender` cannot be the zero address. - `spender` must have allowance for the caller of at least `subtractedValue`."
      },
      "increaseAllowance(address,uint256)": {
        "details": "Atomically increases the allowance granted to `spender` by the caller.     * This is an alternative to `approve` that can be used as a mitigation for problems described in `IERC20.approve`.     * Emits an `Approval` event indicating the updated allowance.     * Requirements:     * - `spender` cannot be the zero address."
      },
      "isOwner()": {
        "details": "Returns true if the caller is the current owner."
      },
      "mint(address,uint256)": {
        "details": "See `ERC20._mint`.     * Requirements:     * - the caller must have the `MinterRole`."
      },
      "name()": {
        "details": "Returns the name of the token."
      },
      "owner()": {
        "details": "Returns the address of the current owner."
      },
      "renounceOwnership()": {
        "details": "Leaves the contract without owner. It will not be possible to call `onlyOwner` functions anymore. Can only be called by the current owner.     * > Note: Renouncing ownership will leave the contract without an owner, thereby removing any functionality that is only available to the owner."
      },
      "symbol()": {
        "details": "Returns the symbol of the token, usually a shorter version of the name."
      },
      "totalSupply()": {
        "details": "See `IERC20.totalSupply`."
      },
      "transfer(address,uint256)": {
        "details": "See `IERC20.transfer`.     * Requirements:     * - `recipient` cannot be the zero address. - the caller must have a balance of at least `amount`."
      },
      "transferFrom(address,address,uint256)": {
        "details": "See `IERC20.transferFrom`.     * Emits an `Approval` event indicating the updated allowance. This is not required by the EIP. See the note at the beginning of `ERC20`;     * Requirements: - `sender` and `recipient` cannot be the zero address. - `sender` must have a balance of at least `value`. - the caller must have allowance for `sender`'s tokens of at least `amount`."
      },
      "transferOwnership(address)": {
        "details": "Transfers ownership of the contract to a new account (`newOwner`). Can only be called by the current owner."
      }
    }
  },
  "userdoc": {
    "methods": {}
  }
}