{
  "contractName": "ERC20Mock",
  "abi": [
    {
      "constant": true,
      "inputs": [],
      "name": "mintingFinished",
      "outputs": [
        {
          "name": "",
          "type": "bool"
        }
      ],
      "payable": false,
      "stateMutability": "view",
      "type": "function"
    },
    {
      "constant": false,
      "inputs": [
        {
          "name": "_spender",
          "type": "address"
        },
        {
          "name": "_value",
          "type": "uint256"
        }
      ],
      "name": "approve",
      "outputs": [
        {
          "name": "",
          "type": "bool"
        }
      ],
      "payable": false,
      "stateMutability": "nonpayable",
      "type": "function"
    },
    {
      "constant": true,
      "inputs": [],
      "name": "totalSupply",
      "outputs": [
        {
          "name": "",
          "type": "uint256"
        }
      ],
      "payable": false,
      "stateMutability": "view",
      "type": "function"
    },
    {
      "constant": false,
      "inputs": [
        {
          "name": "_from",
          "type": "address"
        },
        {
          "name": "_to",
          "type": "address"
        },
        {
          "name": "_value",
          "type": "uint256"
        }
      ],
      "name": "transferFrom",
      "outputs": [
        {
          "name": "",
          "type": "bool"
        }
      ],
      "payable": false,
      "stateMutability": "nonpayable",
      "type": "function"
    },
    {
      "constant": false,
      "inputs": [
        {
          "name": "_to",
          "type": "address"
        },
        {
          "name": "_amount",
          "type": "uint256"
        }
      ],
      "name": "mint",
      "outputs": [
        {
          "name": "",
          "type": "bool"
        }
      ],
      "payable": false,
      "stateMutability": "nonpayable",
      "type": "function"
    },
    {
      "constant": false,
      "inputs": [
        {
          "name": "_value",
          "type": "uint256"
        }
      ],
      "name": "burn",
      "outputs": [],
      "payable": false,
      "stateMutability": "nonpayable",
      "type": "function"
    },
    {
      "constant": false,
      "inputs": [
        {
          "name": "_spender",
          "type": "address"
        },
        {
          "name": "_subtractedValue",
          "type": "uint256"
        }
      ],
      "name": "decreaseApproval",
      "outputs": [
        {
          "name": "",
          "type": "bool"
        }
      ],
      "payable": false,
      "stateMutability": "nonpayable",
      "type": "function"
    },
    {
      "constant": true,
      "inputs": [
        {
          "name": "_owner",
          "type": "address"
        }
      ],
      "name": "balanceOf",
      "outputs": [
        {
          "name": "",
          "type": "uint256"
        }
      ],
      "payable": false,
      "stateMutability": "view",
      "type": "function"
    },
    {
      "constant": false,
      "inputs": [],
      "name": "renounceOwnership",
      "outputs": [],
      "payable": false,
      "stateMutability": "nonpayable",
      "type": "function"
    },
    {
      "constant": false,
      "inputs": [
        {
          "name": "_from",
          "type": "address"
        },
        {
          "name": "_value",
          "type": "uint256"
        }
      ],
      "name": "burnFrom",
      "outputs": [],
      "payable": false,
      "stateMutability": "nonpayable",
      "type": "function"
    },
    {
      "constant": false,
      "inputs": [],
      "name": "finishMinting",
      "outputs": [
        {
          "name": "",
          "type": "bool"
        }
      ],
      "payable": false,
      "stateMutability": "nonpayable",
      "type": "function"
    },
    {
      "constant": true,
      "inputs": [],
      "name": "owner",
      "outputs": [
        {
          "name": "",
          "type": "address"
        }
      ],
      "payable": false,
      "stateMutability": "view",
      "type": "function"
    },
    {
      "constant": false,
      "inputs": [
        {
          "name": "_to",
          "type": "address"
        },
        {
          "name": "_value",
          "type": "uint256"
        }
      ],
      "name": "transfer",
      "outputs": [
        {
          "name": "",
          "type": "bool"
        }
      ],
      "payable": false,
      "stateMutability": "nonpayable",
      "type": "function"
    },
    {
      "constant": false,
      "inputs": [
        {
          "name": "_spender",
          "type": "address"
        },
        {
          "name": "_addedValue",
          "type": "uint256"
        }
      ],
      "name": "increaseApproval",
      "outputs": [
        {
          "name": "",
          "type": "bool"
        }
      ],
      "payable": false,
      "stateMutability": "nonpayable",
      "type": "function"
    },
    {
      "constant": true,
      "inputs": [
        {
          "name": "_owner",
          "type": "address"
        },
        {
          "name": "_spender",
          "type": "address"
        }
      ],
      "name": "allowance",
      "outputs": [
        {
          "name": "",
          "type": "uint256"
        }
      ],
      "payable": false,
      "stateMutability": "view",
      "type": "function"
    },
    {
      "constant": false,
      "inputs": [
        {
          "name": "_newOwner",
          "type": "address"
        }
      ],
      "name": "transferOwnership",
      "outputs": [],
      "payable": false,
      "stateMutability": "nonpayable",
      "type": "function"
    },
    {
      "inputs": [
        {
          "name": "initialAccount",
          "type": "address"
        },
        {
          "name": "initialBalance",
          "type": "uint256"
        }
      ],
      "payable": false,
      "stateMutability": "nonpayable",
      "type": "constructor"
    },
    {
      "anonymous": false,
      "inputs": [
        {
          "indexed": true,
          "name": "to",
          "type": "address"
        },
        {
          "indexed": false,
          "name": "amount",
          "type": "uint256"
        }
      ],
      "name": "Mint",
      "type": "event"
    },
    {
      "anonymous": false,
      "inputs": [],
      "name": "MintFinished",
      "type": "event"
    },
    {
      "anonymous": false,
      "inputs": [
        {
          "indexed": true,
          "name": "previousOwner",
          "type": "address"
        }
      ],
      "name": "OwnershipRenounced",
      "type": "event"
    },
    {
      "anonymous": false,
      "inputs": [
        {
          "indexed": true,
          "name": "previousOwner",
          "type": "address"
        },
        {
          "indexed": true,
          "name": "newOwner",
          "type": "address"
        }
      ],
      "name": "OwnershipTransferred",
      "type": "event"
    },
    {
      "anonymous": false,
      "inputs": [
        {
          "indexed": true,
          "name": "burner",
          "type": "address"
        },
        {
          "indexed": false,
          "name": "value",
          "type": "uint256"
        }
      ],
      "name": "Burn",
      "type": "event"
    },
    {
      "anonymous": false,
      "inputs": [
        {
          "indexed": true,
          "name": "owner",
          "type": "address"
        },
        {
          "indexed": true,
          "name": "spender",
          "type": "address"
        },
        {
          "indexed": false,
          "name": "value",
          "type": "uint256"
        }
      ],
      "name": "Approval",
      "type": "event"
    },
    {
      "anonymous": false,
      "inputs": [
        {
          "indexed": true,
          "name": "from",
          "type": "address"
        },
        {
          "indexed": true,
          "name": "to",
          "type": "address"
        },
        {
          "indexed": false,
          "name": "value",
          "type": "uint256"
        }
      ],
      "name": "Transfer",
      "type": "event"
    }
  ],
  "bytecode": "0x60806040526003805460a060020a60ff021916905534801561002057600080fd5b50604051604080610d8883398101604052805160209091015160038054600160a060020a0319163317905561005e8282640100000000610066810204565b5050506101a2565b600354600090600160a060020a0316331461008057600080fd5b60035474010000000000000000000000000000000000000000900460ff16156100a857600080fd5b6001546100c290836401000000006109f861018f82021704565b600155600160a060020a0383166000908152602081905260409020546100f590836401000000006109f861018f82021704565b600160a060020a03841660008181526020818152604091829020939093558051858152905191927f0f6798a560793a54c3bcfe86a93cde1e73087d944c0ea20544137d412139688592918290030190a2604080518381529051600160a060020a038516916000917fddf252ad1be2c89b69c2b068fc378daa952ba7f163c4a11628f55a4df523b3ef9181900360200190a350600192915050565b8181018281101561019c57fe5b92915050565b610bd7806101b16000396000f3006080604052600436106100cc5763ffffffff60e060020a60003504166305d2035b81146100d1578063095ea7b3146100fa57806318160ddd1461011e57806323b872dd1461014557806340c10f191461016f57806342966c681461019357806366188463146101ad57806370a08231146101d1578063715018a6146101f257806379cc6790146102075780637d64bcb41461022b5780638da5cb5b14610240578063a9059cbb14610271578063d73dd62314610295578063dd62ed3e146102b9578063f2fde38b146102e0575b600080fd5b3480156100dd57600080fd5b506100e6610301565b604080519115158252519081900360200190f35b34801561010657600080fd5b506100e6600160a060020a0360043516602435610311565b34801561012a57600080fd5b50610133610365565b60408051918252519081900360200190f35b34801561015157600080fd5b506100e6600160a060020a036004358116906024351660443561036b565b34801561017b57600080fd5b506100e6600160a060020a03600435166024356104ce565b34801561019f57600080fd5b506101ab6004356105c6565b005b3480156101b957600080fd5b506100e6600160a060020a03600435166024356105d3565b3480156101dd57600080fd5b50610133600160a060020a03600435166106b0565b3480156101fe57600080fd5b506101ab6106cb565b34801561021357600080fd5b506101ab600160a060020a036004351660243561072c565b34801561023757600080fd5b506100e66107c2565b34801561024c57600080fd5b50610255610838565b60408051600160a060020a039092168252519081900360200190f35b34801561027d57600080fd5b506100e6600160a060020a0360043516602435610847565b3480156102a157600080fd5b506100e6600160a060020a0360043516602435610914565b3480156102c557600080fd5b50610133600160a060020a036004358116906024351661099b565b3480156102ec57600080fd5b506101ab600160a060020a03600435166109c6565b60035460a060020a900460ff1681565b336000818152600260209081526040808320600160a060020a03871680855290835281842086905581518681529151939490939092600080516020610b8c833981519152928290030190a350600192915050565b60015490565b600160a060020a03831660009081526020819052604081205482111561039057600080fd5b600160a060020a03841660009081526002602090815260408083203384529091529020548211156103c057600080fd5b600160a060020a03831615156103d557600080fd5b600160a060020a0384166000908152602081905260409020546103fe908363ffffffff6109e616565b600160a060020a038086166000908152602081905260408082209390935590851681522054610433908363ffffffff6109f816565b600160a060020a03808516600090815260208181526040808320949094559187168152600282528281203382529091522054610475908363ffffffff6109e616565b600160a060020a0380861660008181526002602090815260408083203384528252918290209490945580518681529051928716939192600080516020610b6c833981519152929181900390910190a35060019392505050565b600354600090600160a060020a031633146104e857600080fd5b60035460a060020a900460ff16156104ff57600080fd5b600154610512908363ffffffff6109f816565b600155600160a060020a03831660009081526020819052604090205461053e908363ffffffff6109f816565b600160a060020a03841660008181526020818152604091829020939093558051858152905191927f0f6798a560793a54c3bcfe86a93cde1e73087d944c0ea20544137d412139688592918290030190a2604080518381529051600160a060020a03851691600091600080516020610b6c8339815191529181900360200190a350600192915050565b6105d03382610a0b565b50565b336000908152600260209081526040808320600160a060020a038616845290915281205480831061062757336000908152600260209081526040808320600160a060020a038816845290915281205561065c565b610637818463ffffffff6109e616565b336000908152600260209081526040808320600160a060020a03891684529091529020555b336000818152600260209081526040808320600160a060020a038916808552908352928190205481519081529051929392600080516020610b8c833981519152929181900390910190a35060019392505050565b600160a060020a031660009081526020819052604090205490565b600354600160a060020a031633146106e257600080fd5b600354604051600160a060020a03909116907ff8df31144d9c2f0f6b59d69b8b98abd5459d07f2742c4df920b25aae33c6482090600090a260038054600160a060020a0319169055565b600160a060020a038216600090815260026020908152604080832033845290915290205481111561075c57600080fd5b600160a060020a0382166000908152600260209081526040808320338452909152902054610790908263ffffffff6109e616565b600160a060020a03831660009081526002602090815260408083203384529091529020556107be8282610a0b565b5050565b600354600090600160a060020a031633146107dc57600080fd5b60035460a060020a900460ff16156107f357600080fd5b6003805460a060020a60ff02191660a060020a1790556040517fae5184fba832cb2b1f702aca6117b8d265eaf03ad33eb133f19dde0f5920fa0890600090a150600190565b600354600160a060020a031681565b3360009081526020819052604081205482111561086357600080fd5b600160a060020a038316151561087857600080fd5b33600090815260208190526040902054610898908363ffffffff6109e616565b3360009081526020819052604080822092909255600160a060020a038516815220546108ca908363ffffffff6109f816565b600160a060020a03841660008181526020818152604091829020939093558051858152905191923392600080516020610b6c8339815191529281900390910190a350600192915050565b336000908152600260209081526040808320600160a060020a0386168452909152812054610948908363ffffffff6109f816565b336000818152600260209081526040808320600160a060020a038916808552908352928190208590558051948552519193600080516020610b8c833981519152929081900390910190a350600192915050565b600160a060020a03918216600090815260026020908152604080832093909416825291909152205490565b600354600160a060020a031633146109dd57600080fd5b6105d081610afa565b6000828211156109f257fe5b50900390565b81810182811015610a0557fe5b92915050565b600160a060020a038216600090815260208190526040902054811115610a3057600080fd5b600160a060020a038216600090815260208190526040902054610a59908263ffffffff6109e616565b600160a060020a038316600090815260208190526040902055600154610a85908263ffffffff6109e616565b600155604080518281529051600160a060020a038416917fcc16f5dbb4873280815c1ee09dbd06736cffcc184412cf7a71a0fdb75d397ca5919081900360200190a2604080518281529051600091600160a060020a03851691600080516020610b6c8339815191529181900360200190a35050565b600160a060020a0381161515610b0f57600080fd5b600354604051600160a060020a038084169216907f8be0079c531659141344cd1fd0a4f28419497f9722a3daafe3b4186f6b6457e090600090a360038054600160a060020a031916600160a060020a03929092169190911790555600ddf252ad1be2c89b69c2b068fc378daa952ba7f163c4a11628f55a4df523b3ef8c5be1e5ebec7d5bd14f71427d1e84f3dd0314c0f7b2291e5b200ac8c7c3b925a165627a7a72305820f549bd704bf62dd8373e6b5b65c936372cb8fe34235203a7fb0c4db473652fa70029",
  "source": "pragma solidity ^0.4.23;\n\nimport \"openzeppelin-solidity/contracts/token/ERC20/StandardBurnableToken.sol\";\nimport \"openzeppelin-solidity/contracts/token/ERC20/MintableToken.sol\";\n\n// mock class using ERC20\ncontract ERC20Mock is MintableToken, StandardBurnableToken {\n    constructor(address initialAccount, uint256 initialBalance) public {\n        mint(initialAccount, initialBalance);\n    }\n}\n",
  "sourcePath": "/home/bruno/Proyectos/Cripto/kleros/kleros-interaction/contracts/mocks/ERC20Mock.sol",
  "compiler": {
    "name": "solc",
    "version": "0.4.26+commit.4563c3fc.Emscripten.clang"
  },
  "schemaVersion": "2.0.3",
  "updatedAt": "2020-10-07T15:52:40.913Z"
}