{
  "contractName": "MultipleArbitrableTransactionWithFee",
  "abi": [
    {
      "constant": true,
      "inputs": [],
      "name": "arbitratorExtraData",
      "outputs": [
        {
          "name": "",
          "type": "bytes"
        }
      ],
      "payable": false,
      "stateMutability": "view",
      "type": "function"
    },
    {
      "constant": true,
      "inputs": [
        {
          "name": "",
          "type": "uint256"
        }
      ],
      "name": "disputeIDtoTransactionID",
      "outputs": [
        {
          "name": "",
          "type": "uint256"
        }
      ],
      "payable": false,
      "stateMutability": "view",
      "type": "function"
    },
    {
      "constant": true,
      "inputs": [],
      "name": "feeRecipient",
      "outputs": [
        {
          "name": "",
          "type": "address"
        }
      ],
      "payable": false,
      "stateMutability": "view",
      "type": "function"
    },
    {
      "constant": true,
      "inputs": [],
      "name": "arbitrator",
      "outputs": [
        {
          "name": "",
          "type": "address"
        }
      ],
      "payable": false,
      "stateMutability": "view",
      "type": "function"
    },
    {
      "constant": true,
      "inputs": [],
      "name": "feeRecipientBasisPoint",
      "outputs": [
        {
          "name": "",
          "type": "uint256"
        }
      ],
      "payable": false,
      "stateMutability": "view",
      "type": "function"
    },
    {
      "constant": true,
      "inputs": [
        {
          "name": "",
          "type": "uint256"
        }
      ],
      "name": "transactions",
      "outputs": [
        {
          "name": "sender",
          "type": "address"
        },
        {
          "name": "receiver",
          "type": "address"
        },
        {
          "name": "amount",
          "type": "uint256"
        },
        {
          "name": "timeoutPayment",
          "type": "uint256"
        },
        {
          "name": "disputeId",
          "type": "uint256"
        },
        {
          "name": "senderFee",
          "type": "uint256"
        },
        {
          "name": "receiverFee",
          "type": "uint256"
        },
        {
          "name": "lastInteraction",
          "type": "uint256"
        },
        {
          "name": "status",
          "type": "uint8"
        }
      ],
      "payable": false,
      "stateMutability": "view",
      "type": "function"
    },
    {
      "constant": true,
      "inputs": [],
      "name": "feeTimeout",
      "outputs": [
        {
          "name": "",
          "type": "uint256"
        }
      ],
      "payable": false,
      "stateMutability": "view",
      "type": "function"
    },
    {
      "inputs": [
        {
          "name": "_arbitrator",
          "type": "address"
        },
        {
          "name": "_arbitratorExtraData",
          "type": "bytes"
        },
        {
          "name": "_feeRecipient",
          "type": "address"
        },
        {
          "name": "_feeRecipientBasisPoint",
          "type": "uint256"
        },
        {
          "name": "_feeTimeout",
          "type": "uint256"
        }
      ],
      "payable": false,
      "stateMutability": "nonpayable",
      "type": "constructor"
    },
    {
      "anonymous": false,
      "inputs": [
        {
          "indexed": true,
          "name": "_transactionID",
          "type": "uint256"
        },
        {
          "indexed": false,
          "name": "_amount",
          "type": "uint256"
        },
        {
          "indexed": false,
          "name": "_party",
          "type": "address"
        }
      ],
      "name": "Payment",
      "type": "event"
    },
    {
      "anonymous": false,
      "inputs": [
        {
          "indexed": true,
          "name": "_transactionID",
          "type": "uint256"
        },
        {
          "indexed": false,
          "name": "_amount",
          "type": "uint256"
        }
      ],
      "name": "FeeRecipientPayment",
      "type": "event"
    },
    {
      "anonymous": false,
      "inputs": [
        {
          "indexed": true,
          "name": "_oldFeeRecipient",
          "type": "address"
        },
        {
          "indexed": true,
          "name": "_newFeeRecipient",
          "type": "address"
        }
      ],
      "name": "FeeRecipientChanged",
      "type": "event"
    },
    {
      "anonymous": false,
      "inputs": [
        {
          "indexed": true,
          "name": "_transactionID",
          "type": "uint256"
        },
        {
          "indexed": false,
          "name": "_party",
          "type": "uint8"
        }
      ],
      "name": "HasToPayFee",
      "type": "event"
    },
    {
      "anonymous": false,
      "inputs": [
        {
          "indexed": true,
          "name": "_arbitrator",
          "type": "address"
        },
        {
          "indexed": true,
          "name": "_disputeID",
          "type": "uint256"
        },
        {
          "indexed": false,
          "name": "_ruling",
          "type": "uint256"
        }
      ],
      "name": "Ruling",
      "type": "event"
    },
    {
      "anonymous": false,
      "inputs": [
        {
          "indexed": false,
          "name": "_transactionID",
          "type": "uint256"
        },
        {
          "indexed": true,
          "name": "_sender",
          "type": "address"
        },
        {
          "indexed": true,
          "name": "_receiver",
          "type": "address"
        },
        {
          "indexed": false,
          "name": "_amount",
          "type": "uint256"
        }
      ],
      "name": "TransactionCreated",
      "type": "event"
    },
    {
      "anonymous": false,
      "inputs": [
        {
          "indexed": true,
          "name": "_metaEvidenceID",
          "type": "uint256"
        },
        {
          "indexed": false,
          "name": "_evidence",
          "type": "string"
        }
      ],
      "name": "MetaEvidence",
      "type": "event"
    },
    {
      "anonymous": false,
      "inputs": [
        {
          "indexed": true,
          "name": "_arbitrator",
          "type": "address"
        },
        {
          "indexed": true,
          "name": "_disputeID",
          "type": "uint256"
        },
        {
          "indexed": false,
          "name": "_metaEvidenceID",
          "type": "uint256"
        },
        {
          "indexed": false,
          "name": "_evidenceGroupID",
          "type": "uint256"
        }
      ],
      "name": "Dispute",
      "type": "event"
    },
    {
      "anonymous": false,
      "inputs": [
        {
          "indexed": true,
          "name": "_arbitrator",
          "type": "address"
        },
        {
          "indexed": true,
          "name": "_evidenceGroupID",
          "type": "uint256"
        },
        {
          "indexed": true,
          "name": "_party",
          "type": "address"
        },
        {
          "indexed": false,
          "name": "_evidence",
          "type": "string"
        }
      ],
      "name": "Evidence",
      "type": "event"
    },
    {
      "constant": false,
      "inputs": [
        {
          "name": "_timeoutPayment",
          "type": "uint256"
        },
        {
          "name": "_receiver",
          "type": "address"
        },
        {
          "name": "_metaEvidence",
          "type": "string"
        }
      ],
      "name": "createTransaction",
      "outputs": [
        {
          "name": "transactionID",
          "type": "uint256"
        }
      ],
      "payable": true,
      "stateMutability": "payable",
      "type": "function"
    },
    {
      "constant": false,
      "inputs": [
        {
          "name": "_newFeeRecipient",
          "type": "address"
        }
      ],
      "name": "changeFeeRecipient",
      "outputs": [],
      "payable": false,
      "stateMutability": "nonpayable",
      "type": "function"
    },
    {
      "constant": false,
      "inputs": [
        {
          "name": "_transactionID",
          "type": "uint256"
        },
        {
          "name": "_amount",
          "type": "uint256"
        }
      ],
      "name": "pay",
      "outputs": [],
      "payable": false,
      "stateMutability": "nonpayable",
      "type": "function"
    },
    {
      "constant": false,
      "inputs": [
        {
          "name": "_transactionID",
          "type": "uint256"
        },
        {
          "name": "_amountReimbursed",
          "type": "uint256"
        }
      ],
      "name": "reimburse",
      "outputs": [],
      "payable": false,
      "stateMutability": "nonpayable",
      "type": "function"
    },
    {
      "constant": false,
      "inputs": [
        {
          "name": "_transactionID",
          "type": "uint256"
        }
      ],
      "name": "executeTransaction",
      "outputs": [],
      "payable": false,
      "stateMutability": "nonpayable",
      "type": "function"
    },
    {
      "constant": false,
      "inputs": [
        {
          "name": "_transactionID",
          "type": "uint256"
        }
      ],
      "name": "timeOutBySender",
      "outputs": [],
      "payable": false,
      "stateMutability": "nonpayable",
      "type": "function"
    },
    {
      "constant": false,
      "inputs": [
        {
          "name": "_transactionID",
          "type": "uint256"
        }
      ],
      "name": "timeOutByReceiver",
      "outputs": [],
      "payable": false,
      "stateMutability": "nonpayable",
      "type": "function"
    },
    {
      "constant": false,
      "inputs": [
        {
          "name": "_transactionID",
          "type": "uint256"
        }
      ],
      "name": "payArbitrationFeeBySender",
      "outputs": [],
      "payable": true,
      "stateMutability": "payable",
      "type": "function"
    },
    {
      "constant": false,
      "inputs": [
        {
          "name": "_transactionID",
          "type": "uint256"
        }
      ],
      "name": "payArbitrationFeeByReceiver",
      "outputs": [],
      "payable": true,
      "stateMutability": "payable",
      "type": "function"
    },
    {
      "constant": false,
      "inputs": [
        {
          "name": "_transactionID",
          "type": "uint256"
        },
        {
          "name": "_evidence",
          "type": "string"
        }
      ],
      "name": "submitEvidence",
      "outputs": [],
      "payable": false,
      "stateMutability": "nonpayable",
      "type": "function"
    },
    {
      "constant": false,
      "inputs": [
        {
          "name": "_transactionID",
          "type": "uint256"
        }
      ],
      "name": "appeal",
      "outputs": [],
      "payable": true,
      "stateMutability": "payable",
      "type": "function"
    },
    {
      "constant": false,
      "inputs": [
        {
          "name": "_disputeID",
          "type": "uint256"
        },
        {
          "name": "_ruling",
          "type": "uint256"
        }
      ],
      "name": "rule",
      "outputs": [],
      "payable": false,
      "stateMutability": "nonpayable",
      "type": "function"
    },
    {
      "constant": true,
      "inputs": [],
      "name": "getCountTransactions",
      "outputs": [
        {
          "name": "countTransactions",
          "type": "uint256"
        }
      ],
      "payable": false,
      "stateMutability": "view",
      "type": "function"
    },
    {
      "constant": true,
      "inputs": [
        {
          "name": "_address",
          "type": "address"
        }
      ],
      "name": "getTransactionIDsByAddress",
      "outputs": [
        {
          "name": "transactionIDs",
          "type": "uint256[]"
        }
      ],
      "payable": false,
      "stateMutability": "view",
      "type": "function"
    }
  ],
  "bytecode": "0x60806040523480156200001157600080fd5b5060405162002396380380620023968339810160409081528151602080840151928401516060850151608086015160048054600160a060020a031916600160a060020a03871617905594909501805193959094919390926200007991600391870190620000aa565b5060008054600160a060020a031916600160a060020a039490941693909317909255600155600555506200014f9050565b828054600181600116156101000203166002900490600052602060002090601f016020900481019282601f10620000ed57805160ff19168380011785556200011d565b828001600101855582156200011d579182015b828111156200011d57825182559160200191906001019062000100565b506200012b9291506200012f565b5090565b6200014c91905b808211156200012b576000815560010162000136565b90565b612237806200015f6000396000f3006080604052600436106101035763ffffffff60e060020a6000350416630c7ac7b6811461010857806323604071146101925780632fbe3b03146101b5578063311a6c56146101df5780633de0c7ef146101fa57806346904840146102125780636cc6cde1146102435780636e72b452146102585780637b44cdb5146102635780637e69b7b01461026e5780638567635e146102795780639ace38c21461028e578063a527aa6a14610326578063a6a7f0eb1461033b578063b329036b14610399578063da8c3eac146103ae578063ee22610b1461040a578063ef48eee614610422578063f42cadc11461043d578063f94cdf9614610455578063fe43a992146104c6575b600080fd5b34801561011457600080fd5b5061011d6104e1565b6040805160208082528351818301528351919283929083019185019080838360005b8381101561015757818101518382015260200161013f565b50505050905090810190601f1680156101845780820380516001836020036101000a031916815260200191505b509250505060405180910390f35b34801561019e57600080fd5b506101b3600160a060020a036004351661056f565b005b3480156101c157600080fd5b506101cd600435610634565b60408051918252519081900360200190f35b3480156101eb57600080fd5b506101b3600435602435610646565b34801561020657600080fd5b506101b36004356107ab565b34801561021e57600080fd5b506102276108da565b60408051600160a060020a039092168252519081900360200190f35b34801561024f57600080fd5b506102276108e9565b6101b36004356108f8565b6101b3600435610bc6565b6101b3600435610e6c565b34801561028557600080fd5b506101cd610f7f565b34801561029a57600080fd5b506102a6600435610f85565b604051808a600160a060020a0316600160a060020a0316815260200189600160a060020a0316600160a060020a0316815260200188815260200187815260200186815260200185815260200184815260200183815260200182600481111561030a57fe5b60ff168152602001995050505050505050505060405180910390f35b34801561033257600080fd5b506101cd610fee565b34801561034757600080fd5b5060408051602060046024803582810135601f81018590048502860185019096528585526101b3958335953695604494919390910191908190840183828082843750949750610ff49650505050505050565b3480156103a557600080fd5b506101cd6111e4565b604080516020600460443581810135601f81018490048402850184019095528484526101cd9482359460248035600160a060020a0316953695946064949201919081908401838280828437509497506111ea9650505050505050565b34801561041657600080fd5b506101b3600435611405565b34801561042e57600080fd5b506101b360043560243561159b565b34801561044957600080fd5b506101b36004356117ba565b34801561046157600080fd5b50610476600160a060020a03600435166118ea565b60408051602080825283518183015283519192839290830191858101910280838360005b838110156104b257818101518382015260200161049a565b505050509050019250505060405180910390f35b3480156104d257600080fd5b506101b3600435602435611a6a565b6003805460408051602060026001851615610100026000190190941693909304601f810184900484028201840190925281815292918301828280156105675780601f1061053c57610100808354040283529160200191610567565b820191906000526020600020905b81548152906001019060200180831161054a57829003601f168201915b505050505081565b600054600160a060020a031633146105e9576040805160e560020a62461bcd02815260206004820152602c60248201527f5468652063616c6c6572206d757374206265207468652063757272656e742046604482015260a260020a6b195948149958da5c1a595b9d02606482015290519081900360840190fd5b60008054600160a060020a031916600160a060020a0383169081178255604051909133917f0bc21fe5c3ab742ff1d15b5c4477ffbacf1167e618228078fa625edebe7f331d9190a350565b60066020526000908152604090205481565b600082815260066020526040812054600280549192918390811061066657fe5b600091825260209091206004546009909202019150600160a060020a031633146106e8576040805160e560020a62461bcd02815260206004820152602260248201527f5468652063616c6c6572206d757374206265207468652061726269747261746f604482015260f160020a61391702606482015290519081900360840190fd5b6003600882015460ff1660048111156106fd57fe5b14610764576040805160e560020a62461bcd02815260206004820152602660248201527f54686520646973707574652068617320616c7265616479206265656e20726573604482015260d160020a6537b63b32b21702606482015290519081900360840190fd5b604080518481529051859133917f394027a5fa6e098a1191094d1719d6929b9abc535fcc0c8f448d6a4e756222769181900360200190a36107a58284611c4d565b50505050565b60006002828154811015156107bc57fe5b6000918252602090912060099091020190506001600882015460ff1660048111156107e357fe5b1461083f576040805160e560020a62461bcd02815260206004820152602d602482015260008051602061218c8339815191526044820152609960020a6c37103a34329039b2b73232b91702606482015290519081900360840190fd5b60055460078201544203101561088d576040805160e560020a62461bcd028152602060048201819052602482015260008051602061210c833981519152604482015290519081900360640190fd5b6005810154156108cb5780546005820154604051600160a060020a039092169181156108fc0291906000818181858888f15050600060058501555050505b6108d6826002611c4d565b5050565b600054600160a060020a031681565b600454600160a060020a031681565b60008060028381548110151561090a57fe5b60009182526020918290206004805460405160e060020a63f7434ea902815291820194855260038054600260001960018316156101000201909116046024840181905260099095029093019650600160a060020a03169363f7434ea99390918291604490910190849080156109c05780601f10610995576101008083540402835291602001916109c0565b820191906000526020600020905b8154815290600101906020018083116109a357829003601f168201915b505092505050602060405180830381600087803b1580156109e057600080fd5b505af11580156109f4573d6000803e3d6000fd5b505050506040513d6020811015610a0a57600080fd5b505190506003600883015460ff166004811115610a2357fe5b10610a94576040805160e560020a62461bcd02815260206004820152604e602482015260008051602061216c83398151915260448201526000805160206121cc8339815191526064820152609160020a6d3132b2b71032bc32b1baba32b21702608482015290519081900360a40190fd5b6001820154600160a060020a03163314610ae6576040805160e560020a62461bcd02815260206004820181905260248201526000805160206120ec833981519152604482015290519081900360640190fd5b600682018054340190819055811115610b63576040805160e560020a62461bcd02815260206004820152602e60248201527f54686520726563656976657220666565206d75737420636f76657220617262696044820152609160020a6d3a3930ba34b7b71031b7b9ba399702606482015290519081900360840190fd5b4260078301556005820154811115610bb75760088201805460ff1916600117905560405183906000805160206121ec8339815191529060009080825b60ff16815260200191505060405180910390a2610bc1565b610bc18382611e92565b505050565b600080600283815481101515610bd857fe5b60009182526020918290206004805460405160e060020a63f7434ea902815291820194855260038054600260001960018316156101000201909116046024840181905260099095029093019650600160a060020a03169363f7434ea9939091829160449091019084908015610c8e5780601f10610c6357610100808354040283529160200191610c8e565b820191906000526020600020905b815481529060010190602001808311610c7157829003601f168201915b505092505050602060405180830381600087803b158015610cae57600080fd5b505af1158015610cc2573d6000803e3d6000fd5b505050506040513d6020811015610cd857600080fd5b505190506003600883015460ff166004811115610cf157fe5b10610d62576040805160e560020a62461bcd02815260206004820152604e602482015260008051602061216c83398151915260448201526000805160206121cc8339815191526064820152609160020a6d3132b2b71032bc32b1baba32b21702608482015290519081900360a40190fd5b8154600160a060020a03163314610db1576040805160e560020a62461bcd02815260206004820152601e602482015260008051602061214c833981519152604482015290519081900360640190fd5b600582018054340190819055811115610e2c576040805160e560020a62461bcd02815260206004820152602c60248201527f5468652073656e64657220666565206d75737420636f76657220617262697472604482015260a160020a6b30ba34b7b71031b7b9ba399702606482015290519081900360840190fd5b4260078301556006820154811115610bb75760088201805460ff1916600217905560405183906000805160206121ec833981519152906001908082610b9f565b6000600282815481101515610e7d57fe5b60009182526020909120600480546009909302909101818101546040805160e360020a63093225f102815293840182815260248501918252600380546002600019600183161561010002019091160460448701819052949750600160a060020a03909616956349912f8895349591939160649091019084908015610f425780601f10610f1757610100808354040283529160200191610f42565b820191906000526020600020905b815481529060010190602001808311610f2557829003601f168201915b505093505050506000604051808303818588803b158015610f6257600080fd5b505af1158015610f76573d6000803e3d6000fd5b50505050505050565b60015481565b6002805482908110610f9357fe5b6000918252602090912060099091020180546001820154600283015460038401546004850154600586015460068701546007880154600890980154600160a060020a0397881699509690951696939592949193909260ff1689565b60025490565b600060028381548110151561100557fe5b600091825260209091206009909102018054909150600160a060020a031633148061103c57506001810154600160a060020a031633145b15156110ac576040805160e560020a62461bcd02815260206004820152602e60248201527f5468652063616c6c6572206d757374206265207468652073656e646572206f726044820152609160020a6d103a3432903932b1b2b4bb32b91702606482015290519081900360840190fd5b6004600882015460ff1660048111156110c157fe5b10611134576040805160e560020a62461bcd02815260206004820152603260248201527f4d757374206e6f742073656e642065766964656e6365206966207468652064696044820152607160020a7139b83aba329034b9903932b9b7b63b32b21702606482015290519081900360840190fd5b600454604080516020808252855181830152855133948894600160a060020a03909116937fdccf2f8b2cc26eafcd61905cba744cff4b81d14740725f6376390dc6298a6a3c938993919283929083019185019080838360005b838110156111a557818101518382015260200161118d565b50505050905090810190601f1680156111d25780820380516001836020036101000a031916815260200191505b509250505060405180910390a4505050565b60055481565b600060026101206040519081016040528033600160a060020a0316815260200185600160a060020a031681526020013481526020018681526020016000815260200160008152602001600081526020014281526020016000600481111561124d57fe5b905281546001808201808555600094855260209485902084516009909402018054600160a060020a0319908116600160a060020a039586161782559585015181840180549097169416939093179094556040830151600283015560608301516003830155608083015160048084019190915560a0840151600584015560c0840151600684015560e084015160078401556101008401516008840180549193909260ff199092169184908111156112ff57fe5b02179055505050506001600280549050037f61606860eb6c87306811e2695215385101daab53bd6ab4e9f9049aead9363c7d836040518080602001828103825283818151815260200191508051906020019080838360005b8381101561136f578181015183820152602001611357565b50505050905090810190601f16801561139c5780820380516001836020036101000a031916815260200191505b509250505060405180910390a26002546040805160001990920182523460208301528051600160a060020a0386169233927fe9097a4f4eddc0e5906640fcd9e1193c9db52771536ca4c8b06ab4c40aa045d292918290030190a350600254600019019392505050565b600080600060028481548110151561141957fe5b906000526020600020906009020192508260030154836007015442031015151561148d576040805160e560020a62461bcd02815260206004820152601f60248201527f5468652074696d656f757420686173206e6f7420706173736564207965742e00604482015290519081900360640190fd5b6000600884015460ff1660048111156114a257fe5b146114f7576040805160e560020a62461bcd028152602060048201526026602482015260008051602061212c833981519152604482015260d160020a65383aba32b21702606482015290519081900360840190fd5b6002830180546000909155915061150d826120bf565b60008054604051929350600160a060020a03169183156108fc0291849190818181858888f15050506001850154604051600160a060020a03909116925083850380156108fc029250906000818181858888f150506040805185815290518894506000805160206120cc8339815191529350908190036020019150a25050600801805460ff1916600417905550565b6000806002848154811015156115ad57fe5b600091825260209091206009909102018054909250600160a060020a0316331461160f576040805160e560020a62461bcd02815260206004820152601e602482015260008051602061214c833981519152604482015290519081900360640190fd5b6000600883015460ff16600481111561162457fe5b14611679576040805160e560020a62461bcd028152602060048201526026602482015260008051602061212c833981519152604482015260d160020a65383aba32b21702606482015290519081900360840190fd5b60028201548311156116fb576040805160e560020a62461bcd02815260206004820152602481018290527f54686520616d6f756e7420706169642068617320746f206265206c657373207460448201527f68616e206f7220657175616c20746f20746865207472616e73616374696f6e2e606482015290519081900360840190fd5b600282018054849003905561170f836120bf565b60008054604051929350600160a060020a03169183156108fc0291849190818181858888f15050506001840154604051600160a060020a03909116925083860380156108fc029250906000818181858888f150506040805187815233602082015281518995506000805160206121ac8339815191529450908190039091019150a260408051828152905185916000805160206120cc833981519152919081900360200190a250505050565b60006002828154811015156117cb57fe5b6000918252602090912060099091020190506002600882015460ff1660048111156117f257fe5b14611850576040805160e560020a62461bcd02815260206004820152602f602482015260008051602061218c8339815191526044820152608960020a6e37103a3432903932b1b2b4bb32b91702606482015290519081900360840190fd5b60055460078201544203101561189e576040805160e560020a62461bcd028152602060048201819052602482015260008051602061210c833981519152604482015290519081900360640190fd5b6006810154156118df5760018101546006820154604051600160a060020a039092169181156108fc0291906000818181858888f15050600060068501555050505b6108d6826001611c4d565b6060600080805b6002548210156119845784600160a060020a031660028381548110151561191457fe5b6000918252602090912060099091020154600160a060020a0316148061196d575084600160a060020a031660028381548110151561194e57fe5b6000918252602090912060016009909202010154600160a060020a0316145b15611979576001909201915b6001909101906118f1565b826040519080825280602002602001820160405280156119ae578160200160208202803883390190505b50935060009250600090505b600254811015611a625784600160a060020a03166002828154811015156119dd57fe5b6000918252602090912060099091020154600160a060020a03161480611a36575084600160a060020a0316600282815481101515611a1757fe5b6000918252602090912060016009909202010154600160a060020a0316145b15611a5a578351600184019382918691908110611a4f57fe5b602090810290910101525b6001016119ba565b505050919050565b6000600283815481101515611a7b57fe5b60009182526020909120600160099092020190810154909150600160a060020a03163314611ae1576040805160e560020a62461bcd02815260206004820181905260248201526000805160206120ec833981519152604482015290519081900360640190fd5b6000600882015460ff166004811115611af657fe5b14611b4b576040805160e560020a62461bcd028152602060048201526026602482015260008051602061212c833981519152604482015260d160020a65383aba32b21702606482015290519081900360840190fd5b6002810154821115611bdc576040805160e560020a62461bcd02815260206004820152604360248201527f54686520616d6f756e74207265696d6275727365642068617320746f2062652060448201527f6c657373206f7220657175616c207468616e20746865207472616e7361637469606482015260e960020a6237b71702608482015290519081900360a40190fd5b8054604051600160a060020a039091169083156108fc029084906000818181858888f19350505050158015611c15573d6000803e3d6000fd5b50600281018054839003905560408051838152336020820152815185926000805160206121ac833981519152928290030190a2505050565b6000806000806000806000600289815481101515611c6757fe5b6000918252602090912060099091020196506002881115611cc7576040805160e560020a62461bcd02815260206004820152600f6024820152608960020a6e24b73b30b634b210393ab634b7339702604482015290519081900360640190fd5b60028701805460058901805460068b018054600095869055928590559390935590975090955093506001881415611d27578654604051600160a060020a039091169086880180156108fc02916000818181858888f1935050505050611e77565b6002881415611dbc57611d39866120bf565b60008054604051929550600160a060020a03169185156108fc0291869190818181858888f15050506001890154604051600160a060020a03909116925086890186900380156108fc029250906000818181858888f150506040805187815290518d94506000805160206120cc8339815191529350908190036020019150a2611e77565b50506002808404908504611dcf816120bf565b8754604051919450600160a060020a03169083830180156108fc02916000818181858888f1505060008054604051600160a060020a03909116945087156108fc02935087925090818181858888f15050506001890154604051600160a060020a03909116925084840186900380156108fc029250906000818181858888f150506040805187815290518d94506000805160206120cc8339815191529350908190036020019150a25b50505050600892909201805460ff1916600417905550505050565b6000806000600285815481101515611ea657fe5b6000918252602090912060099091020160088101805491945060039160ff19166001830217905550600480546040805160e060020a63c13517e102815260029381018481526024820192835260038054600019600182161561010002011686900460448401819052600160a060020a039095169563c13517e1958b9591949293926064019084908015611f7a5780601f10611f4f57610100808354040283529160200191611f7a565b820191906000526020600020905b815481529060010190602001808311611f5d57829003601f168201915b505093505050506020604051808303818588803b158015611f9a57600080fd5b505af1158015611fae573d6000803e3d6000fd5b50505050506040513d6020811015611fc557600080fd5b5051600480850182815560009283526006602090815260409384902089905590549154835189815291820189905283519293600160a060020a03909116927f74baab670a4015ab2f1b467c5252a96141a2573f2908e58a92081e80d3cfde3d9281900390910190a3838360050154111561207057600583018054908590558354604051918690039350600160a060020a03169083156108fc029084906000818181858888f150505050505b83836006015411156120b857506006820180549084905560018301546040519185900391600160a060020a039091169082156108fc029083906000818181858888f150505050505b5050505050565b600154612710910204905600f24c0490999b63640255e6e2d3cc3b739c3e6940c5586923bfe7a84bca69b6185468652063616c6c6572206d757374206265207468652072656365697665722e54696d656f75742074696d6520686173206e6f7420706173736564207965742e546865207472616e73616374696f6e2073686f756c646e2774206265206469735468652063616c6c6572206d757374206265207468652073656e6465722e0000446973707574652068617320616c7265616479206265656e2063726561746564546865207472616e73616374696f6e206973206e6f742077616974696e67206fd1432ca9a38d944f01b256a411861b109bc4bfe200c40d7144e919a16b86a8a8206f72206265636175736520746865207472616e73616374696f6e2068617320c74b9f7dedf2887cd3c113b6d8da9cea19e55c1116e25f1f0e1b72d7543179b5a165627a7a72305820a56a8a0a4c9d27d7e97d4f8b9211df20e5fd60dea74bd8c9c64f2e3bb14bd8aa0029",
  "source": "/**\n *  @authors: [@remedcu]\n *  @reviewers: []\n *  @auditors: []\n *  @bounties: []\n *  @deployments: []\n *  @tools: [MythX]\n */\n\npragma solidity ^0.4.24;\n\nimport \"./Arbitrator.sol\";\nimport \"./IArbitrable.sol\";\n\ncontract MultipleArbitrableTransactionWithFee is IArbitrable {\n\n    // **************************** //\n    // *    Contract variables    * //\n    // **************************** //\n\n    uint8 constant AMOUNT_OF_CHOICES = 2;\n    uint8 constant SENDER_WINS = 1;\n    uint8 constant RECEIVER_WINS = 2;\n\n    enum Party {Sender, Receiver}\n    enum Status {NoDispute, WaitingSender, WaitingReceiver, DisputeCreated, Resolved}\n\n    struct Transaction {\n        address sender;\n        address receiver;\n        uint amount;\n        uint timeoutPayment; // Time in seconds after which the transaction can be automatically executed if not disputed.\n        uint disputeId; // If dispute exists, the ID of the dispute.\n        uint senderFee; // Total arbitration fees paid by the sender.\n        uint receiverFee; // Total arbitration fees paid by the receiver.\n        uint lastInteraction; // Last interaction for the dispute procedure.\n        Status status;\n    }\n\n    address public feeRecipient; // Address which receives a share of receiver payment.\n    uint public feeRecipientBasisPoint; // The share of fee to be received by the feeRecipient, down to 2 decimal places as 550 = 5.5%.\n    Transaction[] public transactions;\n    bytes public arbitratorExtraData; // Extra data to set up the arbitration.\n    Arbitrator public arbitrator; // Address of the arbitrator contract.\n    uint public feeTimeout; // Time in seconds a party can take to pay arbitration fees before being considered unresponding and lose the dispute.\n\n\n    mapping (uint => uint) public disputeIDtoTransactionID; // One-to-one relationship between the dispute and the transaction.\n\n    // **************************** //\n    // *          Events          * //\n    // **************************** //\n\n    /** @dev To be emitted when a party pays or reimburses the other.\n     *  @param _transactionID The index of the transaction.\n     *  @param _amount The amount paid.\n     *  @param _party The party that paid.\n     */\n    event Payment(uint indexed _transactionID, uint _amount, address _party);\n\n    /** @dev To be emitted when a fee is received by the feeRecipient.\n     *  @param _transactionID The index of the transaction.\n     *  @param _amount The amount paid.\n     */\n    event FeeRecipientPayment(uint indexed _transactionID, uint _amount);\n\n    /** @dev To be emitted when a feeRecipient is changed.\n     *  @param _oldFeeRecipient Previous feeRecipient.\n     *  @param _newFeeRecipient Current feeRecipient.\n     */\n    event FeeRecipientChanged(address indexed _oldFeeRecipient, address indexed _newFeeRecipient);\n\n    /** @dev Indicate that a party has to pay a fee or would otherwise be considered as losing.\n     *  @param _transactionID The index of the transaction.\n     *  @param _party The party who has to pay.\n     */\n    event HasToPayFee(uint indexed _transactionID, Party _party);\n\n    /** @dev To be raised when a ruling is given.\n     *  @param _arbitrator The arbitrator giving the ruling.\n     *  @param _disputeID ID of the dispute in the Arbitrator contract.\n     *  @param _ruling The ruling which was given.\n     */\n    event Ruling(Arbitrator indexed _arbitrator, uint indexed _disputeID, uint _ruling);\n\n    /** @dev Emitted when a transaction is created.\n     *  @param _transactionID The index of the transaction.\n     *  @param _sender The address of the sender.\n     *  @param _receiver The address of the receiver.\n     *  @param _amount The initial amount in the transaction.\n     */\n    event TransactionCreated(uint _transactionID, address indexed _sender, address indexed _receiver, uint _amount);\n\n    // **************************** //\n    // *    Arbitrable functions  * //\n    // *    Modifying the state   * //\n    // **************************** //\n\n    /** @dev Constructor.\n     *  @param _arbitrator The arbitrator of the contract.\n     *  @param _arbitratorExtraData Extra data for the arbitrator.\n     *  @param _feeRecipient Address which receives a share of receiver payment.\n     *  @param _feeRecipientBasisPoint The share of fee to be received by the feeRecipient, down to 2 decimal places as 550 = 5.5%.\n     *  @param _feeTimeout Arbitration fee timeout for the parties.\n     */\n    constructor (\n        Arbitrator _arbitrator,\n        bytes _arbitratorExtraData,\n        address _feeRecipient,\n        uint _feeRecipientBasisPoint,\n        uint _feeTimeout\n    ) public {\n        arbitrator = _arbitrator;\n        arbitratorExtraData = _arbitratorExtraData;\n        feeRecipient = _feeRecipient;\n        // Basis point being set higher than 10000 will result in underflow, but it's the responsibility of the deployer of the contract.\n        feeRecipientBasisPoint = _feeRecipientBasisPoint;\n        feeTimeout = _feeTimeout;\n    }\n\n    /** @dev Create a transaction.\n     *  @param _timeoutPayment Time after which a party can automatically execute the arbitrable transaction.\n     *  @param _receiver The recipient of the transaction.\n     *  @param _metaEvidence Link to the meta-evidence.\n     *  @return transactionID The index of the transaction.\n     */\n    function createTransaction(\n        uint _timeoutPayment,\n        address _receiver,\n        string _metaEvidence\n    ) public payable returns (uint transactionID) {\n        transactions.push(Transaction({\n            sender: msg.sender,\n            receiver: _receiver,\n            amount: msg.value,\n            timeoutPayment: _timeoutPayment,\n            disputeId: 0,\n            senderFee: 0,\n            receiverFee: 0,\n            lastInteraction: now,\n            status: Status.NoDispute\n        }));\n        emit MetaEvidence(transactions.length - 1, _metaEvidence);\n        emit TransactionCreated(transactions.length - 1, msg.sender, _receiver, msg.value);\n\n        return transactions.length - 1;\n    }\n\n    /** @dev Calculate the amount to be paid in wei according to feeRecipientBasisPoint for a particular amount.\n     *  @param _amount Amount to pay in wei.\n     */\n    function calculateFeeRecipientAmount(uint _amount) internal view returns(uint feeAmount){\n        feeAmount = (_amount * feeRecipientBasisPoint) / 10000;\n    }\n\n    /** @dev Change Fee Recipient.\n     *  @param _newFeeRecipient Address of the new Fee Recipient.\n     */\n    function changeFeeRecipient(address _newFeeRecipient) public {\n        require(msg.sender == feeRecipient, \"The caller must be the current Fee Recipient\");\n        feeRecipient = _newFeeRecipient;\n\n        emit FeeRecipientChanged(msg.sender, _newFeeRecipient);\n    }\n\n    /** @dev Pay receiver. To be called if the good or service is provided.\n     *  @param _transactionID The index of the transaction.\n     *  @param _amount Amount to pay in wei.\n     */\n    function pay(uint _transactionID, uint _amount) public {\n        Transaction storage transaction = transactions[_transactionID];\n        require(transaction.sender == msg.sender, \"The caller must be the sender.\");\n        require(transaction.status == Status.NoDispute, \"The transaction shouldn't be disputed.\");\n        require(_amount <= transaction.amount, \"The amount paid has to be less than or equal to the transaction.\");\n\n        transaction.amount -= _amount;\n\n        uint feeAmount = calculateFeeRecipientAmount(_amount);\n        feeRecipient.send(feeAmount);\n        transaction.receiver.send(_amount - feeAmount);\n\n        emit Payment(_transactionID, _amount, msg.sender);\n        emit FeeRecipientPayment(_transactionID, feeAmount);\n    }\n\n    /** @dev Reimburse sender. To be called if the good or service can't be fully provided.\n     *  @param _transactionID The index of the transaction.\n     *  @param _amountReimbursed Amount to reimburse in wei.\n     */\n    function reimburse(uint _transactionID, uint _amountReimbursed) public {\n        Transaction storage transaction = transactions[_transactionID];\n        require(transaction.receiver == msg.sender, \"The caller must be the receiver.\");\n        require(transaction.status == Status.NoDispute, \"The transaction shouldn't be disputed.\");\n        require(_amountReimbursed <= transaction.amount, \"The amount reimbursed has to be less or equal than the transaction.\");\n\n        transaction.sender.transfer(_amountReimbursed);\n        transaction.amount -= _amountReimbursed;\n        emit Payment(_transactionID, _amountReimbursed, msg.sender);\n    }\n\n    /** @dev Transfer the transaction's amount to the receiver if the timeout has passed.\n     *  @param _transactionID The index of the transaction.\n     */\n    function executeTransaction(uint _transactionID) public {\n        Transaction storage transaction = transactions[_transactionID];\n        require(now - transaction.lastInteraction >= transaction.timeoutPayment, \"The timeout has not passed yet.\");\n        require(transaction.status == Status.NoDispute, \"The transaction shouldn't be disputed.\");\n\n        uint amount = transaction.amount;\n        transaction.amount = 0;\n        uint feeAmount = calculateFeeRecipientAmount(amount);\n        feeRecipient.send(feeAmount);\n        transaction.receiver.send(amount - feeAmount);\n\n        emit FeeRecipientPayment(_transactionID, feeAmount);\n\n        transaction.status = Status.Resolved;\n    }\n\n    /** @dev Reimburse sender if receiver fails to pay the fee.\n     *  @param _transactionID The index of the transaction.\n     */\n    function timeOutBySender(uint _transactionID) public {\n        Transaction storage transaction = transactions[_transactionID];\n        require(transaction.status == Status.WaitingReceiver, \"The transaction is not waiting on the receiver.\");\n        require(now - transaction.lastInteraction >= feeTimeout, \"Timeout time has not passed yet.\");        \n\n        if (transaction.receiverFee != 0) {\n            transaction.receiver.send(transaction.receiverFee);\n            transaction.receiverFee = 0;\n        }\n        executeRuling(_transactionID, SENDER_WINS);\n    }\n\n    /** @dev Pay receiver if sender fails to pay the fee.\n     *  @param _transactionID The index of the transaction.\n     */\n    function timeOutByReceiver(uint _transactionID) public {\n        Transaction storage transaction = transactions[_transactionID];\n        require(transaction.status == Status.WaitingSender, \"The transaction is not waiting on the sender.\");\n        require(now - transaction.lastInteraction >= feeTimeout, \"Timeout time has not passed yet.\");\n\n        if (transaction.senderFee != 0) {\n            transaction.sender.send(transaction.senderFee);\n            transaction.senderFee = 0;\n        }\n        executeRuling(_transactionID, RECEIVER_WINS);\n    }\n\n    /** @dev Pay the arbitration fee to raise a dispute. To be called by the sender. UNTRUSTED.\n     *  Note that the arbitrator can have createDispute throw, which will make this function throw and therefore lead to a party being timed-out.\n     *  This is not a vulnerability as the arbitrator can rule in favor of one party anyway.\n     *  @param _transactionID The index of the transaction.\n     */\n    function payArbitrationFeeBySender(uint _transactionID) public payable {\n        Transaction storage transaction = transactions[_transactionID];\n        uint arbitrationCost = arbitrator.arbitrationCost(arbitratorExtraData);\n\n        require(transaction.status < Status.DisputeCreated, \"Dispute has already been created or because the transaction has been executed.\");\n        require(msg.sender == transaction.sender, \"The caller must be the sender.\");\n\n        transaction.senderFee += msg.value;\n        // Require that the total pay at least the arbitration cost.\n        require(transaction.senderFee >= arbitrationCost, \"The sender fee must cover arbitration costs.\");\n\n        transaction.lastInteraction = now;\n\n        // The receiver still has to pay. This can also happen if he has paid, but arbitrationCost has increased.\n        if (transaction.receiverFee < arbitrationCost) {\n            transaction.status = Status.WaitingReceiver;\n            emit HasToPayFee(_transactionID, Party.Receiver);\n        } else { // The receiver has also paid the fee. We create the dispute.\n            raiseDispute(_transactionID, arbitrationCost);\n        }\n    }\n\n    /** @dev Pay the arbitration fee to raise a dispute. To be called by the receiver. UNTRUSTED.\n     *  Note that this function mirrors payArbitrationFeeBySender.\n     *  @param _transactionID The index of the transaction.\n     */\n    function payArbitrationFeeByReceiver(uint _transactionID) public payable {\n        Transaction storage transaction = transactions[_transactionID];\n        uint arbitrationCost = arbitrator.arbitrationCost(arbitratorExtraData);\n\n        require(transaction.status < Status.DisputeCreated, \"Dispute has already been created or because the transaction has been executed.\");\n        require(msg.sender == transaction.receiver, \"The caller must be the receiver.\");\n\n        transaction.receiverFee += msg.value;\n        // Require that the total paid to be at least the arbitration cost.\n        require(transaction.receiverFee >= arbitrationCost, \"The receiver fee must cover arbitration costs.\");\n\n        transaction.lastInteraction = now;\n        // The sender still has to pay. This can also happen if he has paid, but arbitrationCost has increased.\n        if (transaction.senderFee < arbitrationCost) {\n            transaction.status = Status.WaitingSender;\n            emit HasToPayFee(_transactionID, Party.Sender);\n        } else { // The sender has also paid the fee. We create the dispute.\n            raiseDispute(_transactionID, arbitrationCost);\n        }\n    }\n\n    /** @dev Create a dispute. UNTRUSTED.\n     *  @param _transactionID The index of the transaction.\n     *  @param _arbitrationCost Amount to pay the arbitrator.\n     */\n    function raiseDispute(uint _transactionID, uint _arbitrationCost) internal {\n        Transaction storage transaction = transactions[_transactionID];\n        transaction.status = Status.DisputeCreated;\n        transaction.disputeId = arbitrator.createDispute.value(_arbitrationCost)(AMOUNT_OF_CHOICES, arbitratorExtraData);\n        disputeIDtoTransactionID[transaction.disputeId] = _transactionID;\n        emit Dispute(arbitrator, transaction.disputeId, _transactionID, _transactionID);\n\n        // Refund sender if it overpaid.\n        if (transaction.senderFee > _arbitrationCost) {\n            uint extraFeeSender = transaction.senderFee - _arbitrationCost;\n            transaction.senderFee = _arbitrationCost;\n            transaction.sender.send(extraFeeSender);\n        }\n\n        // Refund receiver if it overpaid.\n        if (transaction.receiverFee > _arbitrationCost) {\n            uint extraFeeReceiver = transaction.receiverFee - _arbitrationCost;\n            transaction.receiverFee = _arbitrationCost;\n            transaction.receiver.send(extraFeeReceiver);\n        }\n    }\n\n    /** @dev Submit a reference to evidence. EVENT.\n     *  @param _transactionID The index of the transaction.\n     *  @param _evidence A link to an evidence using its URI.\n     */\n    function submitEvidence(uint _transactionID, string _evidence) public {\n        Transaction storage transaction = transactions[_transactionID];\n        require(\n            msg.sender == transaction.sender || msg.sender == transaction.receiver,\n            \"The caller must be the sender or the receiver.\"\n        );\n        require(\n            transaction.status < Status.Resolved,\n            \"Must not send evidence if the dispute is resolved.\"\n        );\n\n        emit Evidence(arbitrator, _transactionID, msg.sender, _evidence);\n    }\n\n    /** @dev Appeal an appealable ruling.\n     *  Transfer the funds to the arbitrator.\n     *  Note that no checks are required as the checks are done by the arbitrator.\n     *  @param _transactionID The index of the transaction.\n     */\n    function appeal(uint _transactionID) public payable {\n        Transaction storage transaction = transactions[_transactionID];\n\n        arbitrator.appeal.value(msg.value)(transaction.disputeId, arbitratorExtraData);\n    }\n\n    /** @dev Give a ruling for a dispute. Must be called by the arbitrator.\n     *  The purpose of this function is to ensure that the address calling it has the right to rule on the contract.\n     *  @param _disputeID ID of the dispute in the Arbitrator contract.\n     *  @param _ruling Ruling given by the arbitrator. Note that 0 is reserved for \"Not able/wanting to make a decision\".\n     */\n    function rule(uint _disputeID, uint _ruling) public {\n        uint transactionID = disputeIDtoTransactionID[_disputeID];\n        Transaction storage transaction = transactions[transactionID];\n        require(msg.sender == address(arbitrator), \"The caller must be the arbitrator.\");\n        require(transaction.status == Status.DisputeCreated, \"The dispute has already been resolved.\");\n\n        emit Ruling(Arbitrator(msg.sender), _disputeID, _ruling);\n\n        executeRuling(transactionID, _ruling);\n    }\n\n    /** @dev Execute a ruling of a dispute. It reimburses the fee to the winning party.\n     *  @param _transactionID The index of the transaction.\n     *  @param _ruling Ruling given by the arbitrator. 1 : Reimburse the receiver. 2 : Pay the sender.\n     */\n    function executeRuling(uint _transactionID, uint _ruling) internal {\n        Transaction storage transaction = transactions[_transactionID];\n        require(_ruling <= AMOUNT_OF_CHOICES, \"Invalid ruling.\");\n\n        uint amount = transaction.amount;\n        uint senderArbitrationFee = transaction.senderFee;\n        uint receiverArbitrationFee = transaction.receiverFee;\n\n        transaction.amount = 0;\n        transaction.senderFee = 0;\n        transaction.receiverFee = 0;\n\n        uint feeAmount;\n\n        // Give the arbitration fee back.\n        // Note that we use send to prevent a party from blocking the execution.\n        if (_ruling == SENDER_WINS) {\n            transaction.sender.send(senderArbitrationFee + amount);\n        } else if (_ruling == RECEIVER_WINS) {\n            feeAmount = calculateFeeRecipientAmount(amount);\n\n            feeRecipient.send(feeAmount);\n            transaction.receiver.send(receiverArbitrationFee + amount - feeAmount);\n\n            emit FeeRecipientPayment(_transactionID, feeAmount);\n        } else {\n            uint split_arbitration = senderArbitrationFee / 2;\n            uint split_amount = amount / 2;\n            feeAmount = calculateFeeRecipientAmount(split_amount);\n\n            transaction.sender.send(split_arbitration + split_amount);\n            feeRecipient.send(feeAmount);\n            transaction.receiver.send(split_arbitration + split_amount - feeAmount);\n\n            emit FeeRecipientPayment(_transactionID, feeAmount);\n        }\n\n        transaction.status = Status.Resolved;\n    }\n\n    // **************************** //\n    // *     Constant getters     * //\n    // **************************** //\n\n    /** @dev Getter to know the count of transactions.\n     *  @return countTransactions The count of transactions.\n     */\n    function getCountTransactions() public view returns (uint countTransactions) {\n        return transactions.length;\n    }\n\n    /** @dev Get IDs for transactions where the specified address is the receiver and/or the sender.\n     *  This function must be used by the UI and not by other smart contracts.\n     *  Note that the complexity is O(t), where t is amount of arbitrable transactions.\n     *  @param _address The specified address.\n     *  @return transactionIDs The transaction IDs.\n     */\n    function getTransactionIDsByAddress(address _address) public view returns (uint[] transactionIDs) {\n        uint count = 0;\n        for (uint i = 0; i < transactions.length; i++) {\n            if (transactions[i].sender == _address || transactions[i].receiver == _address)\n                count++;\n        }\n\n        transactionIDs = new uint[](count);\n\n        count = 0;\n\n        for (uint j = 0; j < transactions.length; j++) {\n            if (transactions[j].sender == _address || transactions[j].receiver == _address)\n                transactionIDs[count++] = j;\n        }\n    }\n}\n",
  "sourcePath": "/home/bruno/Proyectos/Cripto/kleros/kleros-interaction/contracts/standard/arbitration/MultipleArbitrableTransactionWithFee.sol",
  "compiler": {
    "name": "solc",
    "version": "0.4.26+commit.4563c3fc.Emscripten.clang"
  },
  "schemaVersion": "2.0.3",
  "updatedAt": "2020-10-07T15:52:41.057Z"
}