{
  "contractName": "MultipleArbitrableTokenTransactionWithFee",
  "abi": [
    {
      "constant": true,
      "inputs": [],
      "name": "arbitratorExtraData",
      "outputs": [
        {
          "name": "",
          "type": "bytes"
        }
      ],
      "payable": false,
      "stateMutability": "view",
      "type": "function"
    },
    {
      "constant": true,
      "inputs": [
        {
          "name": "",
          "type": "uint256"
        }
      ],
      "name": "disputeIDtoTransactionID",
      "outputs": [
        {
          "name": "",
          "type": "uint256"
        }
      ],
      "payable": false,
      "stateMutability": "view",
      "type": "function"
    },
    {
      "constant": true,
      "inputs": [],
      "name": "feeRecipient",
      "outputs": [
        {
          "name": "",
          "type": "address"
        }
      ],
      "payable": false,
      "stateMutability": "view",
      "type": "function"
    },
    {
      "constant": true,
      "inputs": [],
      "name": "arbitrator",
      "outputs": [
        {
          "name": "",
          "type": "address"
        }
      ],
      "payable": false,
      "stateMutability": "view",
      "type": "function"
    },
    {
      "constant": true,
      "inputs": [],
      "name": "feeRecipientBasisPoint",
      "outputs": [
        {
          "name": "",
          "type": "uint256"
        }
      ],
      "payable": false,
      "stateMutability": "view",
      "type": "function"
    },
    {
      "constant": true,
      "inputs": [
        {
          "name": "",
          "type": "uint256"
        }
      ],
      "name": "transactions",
      "outputs": [
        {
          "name": "sender",
          "type": "address"
        },
        {
          "name": "receiver",
          "type": "address"
        },
        {
          "name": "amount",
          "type": "uint256"
        },
        {
          "name": "token",
          "type": "address"
        },
        {
          "name": "timeoutPayment",
          "type": "uint256"
        },
        {
          "name": "disputeId",
          "type": "uint256"
        },
        {
          "name": "senderFee",
          "type": "uint256"
        },
        {
          "name": "receiverFee",
          "type": "uint256"
        },
        {
          "name": "lastInteraction",
          "type": "uint256"
        },
        {
          "name": "status",
          "type": "uint8"
        }
      ],
      "payable": false,
      "stateMutability": "view",
      "type": "function"
    },
    {
      "constant": true,
      "inputs": [],
      "name": "feeTimeout",
      "outputs": [
        {
          "name": "",
          "type": "uint256"
        }
      ],
      "payable": false,
      "stateMutability": "view",
      "type": "function"
    },
    {
      "inputs": [
        {
          "name": "_arbitrator",
          "type": "address"
        },
        {
          "name": "_arbitratorExtraData",
          "type": "bytes"
        },
        {
          "name": "_feeRecipient",
          "type": "address"
        },
        {
          "name": "_feeRecipientBasisPoint",
          "type": "uint256"
        },
        {
          "name": "_feeTimeout",
          "type": "uint256"
        }
      ],
      "payable": false,
      "stateMutability": "nonpayable",
      "type": "constructor"
    },
    {
      "anonymous": false,
      "inputs": [
        {
          "indexed": true,
          "name": "_transactionID",
          "type": "uint256"
        },
        {
          "indexed": false,
          "name": "_amount",
          "type": "uint256"
        },
        {
          "indexed": false,
          "name": "_party",
          "type": "address"
        }
      ],
      "name": "Payment",
      "type": "event"
    },
    {
      "anonymous": false,
      "inputs": [
        {
          "indexed": true,
          "name": "_transactionID",
          "type": "uint256"
        },
        {
          "indexed": false,
          "name": "_amount",
          "type": "uint256"
        },
        {
          "indexed": false,
          "name": "_token",
          "type": "address"
        }
      ],
      "name": "FeeRecipientPaymentInToken",
      "type": "event"
    },
    {
      "anonymous": false,
      "inputs": [
        {
          "indexed": true,
          "name": "_oldFeeRecipient",
          "type": "address"
        },
        {
          "indexed": true,
          "name": "_newFeeRecipient",
          "type": "address"
        }
      ],
      "name": "FeeRecipientChanged",
      "type": "event"
    },
    {
      "anonymous": false,
      "inputs": [
        {
          "indexed": true,
          "name": "_transactionID",
          "type": "uint256"
        },
        {
          "indexed": false,
          "name": "_party",
          "type": "uint8"
        }
      ],
      "name": "HasToPayFee",
      "type": "event"
    },
    {
      "anonymous": false,
      "inputs": [
        {
          "indexed": true,
          "name": "_arbitrator",
          "type": "address"
        },
        {
          "indexed": true,
          "name": "_disputeID",
          "type": "uint256"
        },
        {
          "indexed": false,
          "name": "_ruling",
          "type": "uint256"
        }
      ],
      "name": "Ruling",
      "type": "event"
    },
    {
      "anonymous": false,
      "inputs": [
        {
          "indexed": false,
          "name": "_transactionID",
          "type": "uint256"
        },
        {
          "indexed": true,
          "name": "_sender",
          "type": "address"
        },
        {
          "indexed": true,
          "name": "_receiver",
          "type": "address"
        },
        {
          "indexed": false,
          "name": "_token",
          "type": "address"
        },
        {
          "indexed": false,
          "name": "_amount",
          "type": "uint256"
        }
      ],
      "name": "TransactionCreated",
      "type": "event"
    },
    {
      "anonymous": false,
      "inputs": [
        {
          "indexed": true,
          "name": "_metaEvidenceID",
          "type": "uint256"
        },
        {
          "indexed": false,
          "name": "_evidence",
          "type": "string"
        }
      ],
      "name": "MetaEvidence",
      "type": "event"
    },
    {
      "anonymous": false,
      "inputs": [
        {
          "indexed": true,
          "name": "_arbitrator",
          "type": "address"
        },
        {
          "indexed": true,
          "name": "_disputeID",
          "type": "uint256"
        },
        {
          "indexed": false,
          "name": "_metaEvidenceID",
          "type": "uint256"
        },
        {
          "indexed": false,
          "name": "_evidenceGroupID",
          "type": "uint256"
        }
      ],
      "name": "Dispute",
      "type": "event"
    },
    {
      "anonymous": false,
      "inputs": [
        {
          "indexed": true,
          "name": "_arbitrator",
          "type": "address"
        },
        {
          "indexed": true,
          "name": "_evidenceGroupID",
          "type": "uint256"
        },
        {
          "indexed": true,
          "name": "_party",
          "type": "address"
        },
        {
          "indexed": false,
          "name": "_evidence",
          "type": "string"
        }
      ],
      "name": "Evidence",
      "type": "event"
    },
    {
      "constant": false,
      "inputs": [
        {
          "name": "_amount",
          "type": "uint256"
        },
        {
          "name": "_token",
          "type": "address"
        },
        {
          "name": "_timeoutPayment",
          "type": "uint256"
        },
        {
          "name": "_receiver",
          "type": "address"
        },
        {
          "name": "_metaEvidence",
          "type": "string"
        }
      ],
      "name": "createTransaction",
      "outputs": [
        {
          "name": "transactionIndex",
          "type": "uint256"
        }
      ],
      "payable": false,
      "stateMutability": "nonpayable",
      "type": "function"
    },
    {
      "constant": false,
      "inputs": [
        {
          "name": "_newFeeRecipient",
          "type": "address"
        }
      ],
      "name": "changeFeeRecipient",
      "outputs": [],
      "payable": false,
      "stateMutability": "nonpayable",
      "type": "function"
    },
    {
      "constant": false,
      "inputs": [
        {
          "name": "_transactionID",
          "type": "uint256"
        },
        {
          "name": "_amount",
          "type": "uint256"
        }
      ],
      "name": "pay",
      "outputs": [],
      "payable": false,
      "stateMutability": "nonpayable",
      "type": "function"
    },
    {
      "constant": false,
      "inputs": [
        {
          "name": "_transactionID",
          "type": "uint256"
        },
        {
          "name": "_amountReimbursed",
          "type": "uint256"
        }
      ],
      "name": "reimburse",
      "outputs": [],
      "payable": false,
      "stateMutability": "nonpayable",
      "type": "function"
    },
    {
      "constant": false,
      "inputs": [
        {
          "name": "_transactionID",
          "type": "uint256"
        }
      ],
      "name": "executeTransaction",
      "outputs": [],
      "payable": false,
      "stateMutability": "nonpayable",
      "type": "function"
    },
    {
      "constant": false,
      "inputs": [
        {
          "name": "_transactionID",
          "type": "uint256"
        }
      ],
      "name": "timeOutBySender",
      "outputs": [],
      "payable": false,
      "stateMutability": "nonpayable",
      "type": "function"
    },
    {
      "constant": false,
      "inputs": [
        {
          "name": "_transactionID",
          "type": "uint256"
        }
      ],
      "name": "timeOutByReceiver",
      "outputs": [],
      "payable": false,
      "stateMutability": "nonpayable",
      "type": "function"
    },
    {
      "constant": false,
      "inputs": [
        {
          "name": "_transactionID",
          "type": "uint256"
        }
      ],
      "name": "payArbitrationFeeBySender",
      "outputs": [],
      "payable": true,
      "stateMutability": "payable",
      "type": "function"
    },
    {
      "constant": false,
      "inputs": [
        {
          "name": "_transactionID",
          "type": "uint256"
        }
      ],
      "name": "payArbitrationFeeByReceiver",
      "outputs": [],
      "payable": true,
      "stateMutability": "payable",
      "type": "function"
    },
    {
      "constant": false,
      "inputs": [
        {
          "name": "_transactionID",
          "type": "uint256"
        },
        {
          "name": "_evidence",
          "type": "string"
        }
      ],
      "name": "submitEvidence",
      "outputs": [],
      "payable": false,
      "stateMutability": "nonpayable",
      "type": "function"
    },
    {
      "constant": false,
      "inputs": [
        {
          "name": "_transactionID",
          "type": "uint256"
        }
      ],
      "name": "appeal",
      "outputs": [],
      "payable": true,
      "stateMutability": "payable",
      "type": "function"
    },
    {
      "constant": false,
      "inputs": [
        {
          "name": "_disputeID",
          "type": "uint256"
        },
        {
          "name": "_ruling",
          "type": "uint256"
        }
      ],
      "name": "rule",
      "outputs": [],
      "payable": false,
      "stateMutability": "nonpayable",
      "type": "function"
    },
    {
      "constant": true,
      "inputs": [],
      "name": "getCountTransactions",
      "outputs": [
        {
          "name": "countTransactions",
          "type": "uint256"
        }
      ],
      "payable": false,
      "stateMutability": "view",
      "type": "function"
    },
    {
      "constant": true,
      "inputs": [
        {
          "name": "_address",
          "type": "address"
        }
      ],
      "name": "getTransactionIDsByAddress",
      "outputs": [
        {
          "name": "transactionIDs",
          "type": "uint256[]"
        }
      ],
      "payable": false,
      "stateMutability": "view",
      "type": "function"
    }
  ],
  "bytecode": "0x60806040523480156200001157600080fd5b5060405162002c5238038062002c528339810160409081528151602080840151928401516060850151608086015160038054600160a060020a031916600160a060020a03871617905594909501805193959094919390926200007991600491870190620000aa565b5060008054600160a060020a031916600160a060020a039490941693909317909255600155600555506200014f9050565b828054600181600116156101000203166002900490600052602060002090601f016020900481019282601f10620000ed57805160ff19168380011785556200011d565b828001600101855582156200011d579182015b828111156200011d57825182559160200191906001019062000100565b506200012b9291506200012f565b5090565b6200014c91905b808211156200012b576000815560010162000136565b90565b612af3806200015f6000396000f3006080604052600436106101035763ffffffff60e060020a6000350416630c7ac7b6811461010857806323604071146101925780632fbe3b03146101b5578063311a6c56146101df5780633de0c7ef146101fa57806346904840146102125780636cc6cde1146102435780636e72b452146102585780637b44cdb5146102635780637e69b7b01461026e5780638567635e146102795780639ace38c21461028e578063a527aa6a1461033f578063a6a7f0eb14610354578063b329036b146103b2578063ec9aa20a146103c7578063ee22610b1461043f578063ef48eee614610457578063f42cadc114610472578063f94cdf961461048a578063fe43a992146104fb575b600080fd5b34801561011457600080fd5b5061011d610516565b6040805160208082528351818301528351919283929083019185019080838360005b8381101561015757818101518382015260200161013f565b50505050905090810190601f1680156101845780820380516001836020036101000a031916815260200191505b509250505060405180910390f35b34801561019e57600080fd5b506101b3600160a060020a03600435166105a4565b005b3480156101c157600080fd5b506101cd600435610669565b60408051918252519081900360200190f35b3480156101eb57600080fd5b506101b360043560243561067b565b34801561020657600080fd5b506101b36004356107e0565b34801561021e57600080fd5b50610227610910565b60408051600160a060020a039092168252519081900360200190f35b34801561024f57600080fd5b5061022761091f565b6101b360043561092e565b6101b3600435610bdc565b6101b3600435610e62565b34801561028557600080fd5b506101cd610f74565b34801561029a57600080fd5b506102a6600435610f7a565b604051808b600160a060020a0316600160a060020a031681526020018a600160a060020a0316600160a060020a0316815260200189815260200188600160a060020a0316600160a060020a0316815260200187815260200186815260200185815260200184815260200183815260200182600481111561032257fe5b60ff1681526020019a505050505050505050505060405180910390f35b34801561034b57600080fd5b506101cd610fee565b34801561036057600080fd5b5060408051602060046024803582810135601f81018590048502860185019096528585526101b3958335953695604494919390910191908190840183828082843750949750610ff49650505050505050565b3480156103be57600080fd5b506101cd6111e4565b3480156103d357600080fd5b50604080516020600460843581810135601f81018490048402850184019095528484526101cd9482359460248035600160a060020a039081169660443596606435909216953695929460a494909391019181908401838280828437509497506111ea9650505050505050565b34801561044b57600080fd5b506101b3600435611529565b34801561046357600080fd5b506101b3600435602435611823565b34801561047e57600080fd5b506101b3600435611b6d565b34801561049657600080fd5b506104ab600160a060020a0360043516611c9d565b60408051602080825283518183015283519192839290830191858101910280838360005b838110156104e75781810151838201526020016104cf565b505050509050019250505060405180910390f35b34801561050757600080fd5b506101b3600435602435611e1d565b6004805460408051602060026001851615610100026000190190941693909304601f8101849004840282018401909252818152929183018282801561059c5780601f106105715761010080835404028352916020019161059c565b820191906000526020600020905b81548152906001019060200180831161057f57829003601f168201915b505050505081565b600054600160a060020a0316331461061e576040805160e560020a62461bcd02815260206004820152602c60248201527f5468652063616c6c6572206d757374206265207468652063757272656e742046604482015260a260020a6b195948149958da5c1a595b9d02606482015290519081900360840190fd5b60008054600160a060020a031916600160a060020a0383169081178255604051909133917f0bc21fe5c3ab742ff1d15b5c4477ffbacf1167e618228078fa625edebe7f331d9190a350565b60066020526000908152604090205481565b600082815260066020526040812054600280549192918390811061069b57fe5b60009182526020909120600354600a909202019150600160a060020a0316331461071d576040805160e560020a62461bcd02815260206004820152602260248201527f5468652063616c6c6572206d757374206265207468652061726269747261746f604482015260f160020a61391702606482015290519081900360840190fd5b6003600982015460ff16600481111561073257fe5b14610799576040805160e560020a62461bcd02815260206004820152602660248201527f54686520646973707574652068617320616c7265616479206265656e20726573604482015260d160020a6537b63b32b21702606482015290519081900360840190fd5b604080518481529051859133917f394027a5fa6e098a1191094d1719d6929b9abc535fcc0c8f448d6a4e756222769181900360200190a36107da82846120a8565b50505050565b60006002828154811015156107f157fe5b60009182526020909120600a9091020190506001600982015460ff16600481111561081857fe5b14610874576040805160e560020a62461bcd02815260206004820152602d6024820152600080516020612a488339815191526044820152609960020a6c37103a34329039b2b73232b91702606482015290519081900360840190fd5b6005546008820154420310156108c2576040805160e560020a62461bcd02815260206004820181905260248201526000805160206129c8833981519152604482015290519081900360640190fd5b6006810154156109005780546006820154604051600160a060020a039092169181156108fc0291906000818181858888f15050600060068501555050505b61090c8260025b6120a8565b5050565b600054600160a060020a031681565b600354600160a060020a031681565b60008060028381548110151561094057fe5b600091825260209182902060035460405160e060020a63f7434ea9028152600481810195865280546002600019600183161561010002019091160460248301819052600a9095029093019650600160a060020a039091169363f7434ea99390918291604490910190849080156109f75780601f106109cc576101008083540402835291602001916109f7565b820191906000526020600020905b8154815290600101906020018083116109da57829003601f168201915b505092505050602060405180830381600087803b158015610a1757600080fd5b505af1158015610a2b573d6000803e3d6000fd5b505050506040513d6020811015610a4157600080fd5b505190506003600983015460ff166004811115610a5a57fe5b10610aaa576040805160e560020a62461bcd0281526020600482015260216024820152600080516020612a28833981519152604482015260f960020a601702606482015290519081900360840190fd5b6001820154600160a060020a03163314610afc576040805160e560020a62461bcd02815260206004820181905260248201526000805160206129a8833981519152604482015290519081900360640190fd5b600782018054340190819055811115610b79576040805160e560020a62461bcd02815260206004820152602e60248201527f54686520726563656976657220666565206d75737420636f76657220617262696044820152609160020a6d3a3930ba34b7b71031b7b9ba399702606482015290519081900360840190fd5b4260088301556006820154811115610bcd5760098201805460ff191660011790556040518390600080516020612aa88339815191529060009080825b60ff16815260200191505060405180910390a2610bd7565b610bd7838261274f565b505050565b600080600283815481101515610bee57fe5b600091825260209182902060035460405160e060020a63f7434ea9028152600481810195865280546002600019600183161561010002019091160460248301819052600a9095029093019650600160a060020a039091169363f7434ea9939091829160449091019084908015610ca55780601f10610c7a57610100808354040283529160200191610ca5565b820191906000526020600020905b815481529060010190602001808311610c8857829003601f168201915b505092505050602060405180830381600087803b158015610cc557600080fd5b505af1158015610cd9573d6000803e3d6000fd5b505050506040513d6020811015610cef57600080fd5b505190506003600983015460ff166004811115610d0857fe5b10610d58576040805160e560020a62461bcd0281526020600482015260216024820152600080516020612a28833981519152604482015260f960020a601702606482015290519081900360840190fd5b8154600160a060020a03163314610da7576040805160e560020a62461bcd02815260206004820152601e6024820152600080516020612a08833981519152604482015290519081900360640190fd5b600682018054340190819055811115610e22576040805160e560020a62461bcd02815260206004820152602c60248201527f5468652073656e64657220666565206d75737420636f76657220617262697472604482015260a160020a6b30ba34b7b71031b7b9ba399702606482015290519081900360840190fd5b4260088301556007820154811115610bcd5760098201805460ff191660021790556040518390600080516020612aa8833981519152906001908082610bb5565b6000600282815481101515610e7357fe5b60009182526020909120600354600a9092020160058101546040805160e360020a63093225f102815260048082018481526024830193845281546002610100600183161502600019019091160460448401819052959750600160a060020a03909616956349912f889534959492939192916064019084908015610f375780601f10610f0c57610100808354040283529160200191610f37565b820191906000526020600020905b815481529060010190602001808311610f1a57829003601f168201915b505093505050506000604051808303818588803b158015610f5757600080fd5b505af1158015610f6b573d6000803e3d6000fd5b50505050505050565b60015481565b6002805482908110610f8857fe5b60009182526020909120600a90910201805460018201546002830154600384015460048501546005860154600687015460078801546008890154600990990154600160a060020a039889169a509688169895979094169592949193909290919060ff168a565b60025490565b600060028381548110151561100557fe5b60009182526020909120600a909102016001810154909150600160a060020a031633148061103c57508054600160a060020a031633145b15156110ac576040805160e560020a62461bcd02815260206004820152602e60248201527f5468652063616c6c6572206d75737420626520746865207265636569766572206044820152609160020a6d37b9103a34329039b2b73232b91702606482015290519081900360840190fd5b6004600982015460ff1660048111156110c157fe5b10611134576040805160e560020a62461bcd02815260206004820152603260248201527f4d757374206e6f742073656e642065766964656e6365206966207468652064696044820152607160020a7139b83aba329034b9903932b9b7b63b32b21702606482015290519081900360840190fd5b600354604080516020808252855181830152855133948894600160a060020a03909116937fdccf2f8b2cc26eafcd61905cba744cff4b81d14740725f6376390dc6298a6a3c938993919283929083019185019080838360005b838110156111a557818101518382015260200161118d565b50505050905090810190601f1680156111d25780820380516001836020036101000a031916815260200191505b509250505060405180910390a4505050565b60055481565b6040805160e060020a6323b872dd028152336004820152306024820152604481018790529051600091600160a060020a038716916323b872dd9160648082019260209290919082900301818787803b15801561124557600080fd5b505af1158015611259573d6000803e3d6000fd5b505050506040513d602081101561126f57600080fd5b505115156112de576040805160e560020a62461bcd02815260206004820152602b60248201527f53656e64657220646f6573206e6f74206861766520656e6f7567682061707072604482015260a960020a6a37bb32b210333ab732399702606482015290519081900360840190fd5b60026101406040519081016040528033600160a060020a0316815260200185600160a060020a0316815260200188815260200187600160a060020a031681526020018681526020016000815260200160008152602001600081526020014281526020016000600481111561134e57fe5b90528154600180820180855560009485526020948590208451600a909402018054600160a060020a0319908116600160a060020a039586161782559585015181840180548816918616919091179055604085015160028201556060850151600382018054909716941693909317909455608083015160048084019190915560a0840151600584015560c0840151600684015560e0840151600784015561010084015160088401556101208401516009840180549193909260ff1990921691849081111561141757fe5b02179055505050506001600280549050037f61606860eb6c87306811e2695215385101daab53bd6ab4e9f9049aead9363c7d836040518080602001828103825283818151815260200191508051906020019080838360005b8381101561148757818101518382015260200161146f565b50505050905090810190601f1680156114b45780820380516001836020036101000a031916815260200191505b509250505060405180910390a2600254604080516000199092018252600160a060020a03878116602084015282820189905290519085169133917ff2ca096bdb2dc51a1c4a6b9a2b23f4be3e2344121e59d457f38b4b7258ffcdef9181900360600190a3506002546000190195945050505050565b600080600060028481548110151561153d57fe5b90600052602060002090600a02019250826004015483600801544203101515156115b1576040805160e560020a62461bcd02815260206004820152601f60248201527f5468652074696d656f757420686173206e6f7420706173736564207965742e00604482015290519081900360640190fd5b6000600984015460ff1660048111156115c657fe5b1461161b576040805160e560020a62461bcd02815260206004820152602660248201526000805160206129e8833981519152604482015260d160020a65383aba32b21702606482015290519081900360840190fd5b600283018054600090915560098401805460ff1916600417905591506116408261297b565b6003840154600080546040805160e060020a63a9059cbb028152600160a060020a03928316600482015260248101869052905194955092169263a9059cbb926044808201936020939283900390910190829087803b1580156116a157600080fd5b505af11580156116b5573d6000803e3d6000fd5b505050506040513d60208110156116cb57600080fd5b5050600383015460018401546040805160e060020a63a9059cbb028152600160a060020a03928316600482015284860360248201529051919092169163a9059cbb9160448083019260209291908290030181600087803b15801561172e57600080fd5b505af1158015611742573d6000803e3d6000fd5b505050506040513d602081101561175857600080fd5b505115156117b0576040805160e560020a62461bcd0281526020600482015260266024820152600080516020612a88833981519152604482015260d160020a65103330b4b61702606482015290519081900360840190fd5b8254604080518385038152600160a060020a03909216602083015280518692600080516020612a6883398151915292908290030190a2600383015460408051838152600160a060020a0390921660208301528051869260008051602061298883398151915292908290030190a250505050565b60008060028481548110151561183557fe5b60009182526020909120600a909102018054909250600160a060020a03163314611897576040805160e560020a62461bcd02815260206004820152601e6024820152600080516020612a08833981519152604482015290519081900360640190fd5b6000600983015460ff1660048111156118ac57fe5b14611901576040805160e560020a62461bcd02815260206004820152602660248201526000805160206129e8833981519152604482015260d160020a65383aba32b21702606482015290519081900360840190fd5b6002820154831115611983576040805160e560020a62461bcd02815260206004820152602481018290527f54686520616d6f756e7420706169642068617320746f206265206c657373207460448201527f68616e206f7220657175616c20746f20746865207472616e73616374696f6e2e606482015290519081900360840190fd5b60028201805484900390556119978361297b565b6003830154600080546040805160e060020a63a9059cbb028152600160a060020a03928316600482015260248101869052905194955092169263a9059cbb926044808201936020939283900390910190829087803b1580156119f857600080fd5b505af1158015611a0c573d6000803e3d6000fd5b505050506040513d6020811015611a2257600080fd5b5050600382015460018301546040805160e060020a63a9059cbb028152600160a060020a03928316600482015284870360248201529051919092169163a9059cbb9160448083019260209291908290030181600087803b158015611a8557600080fd5b505af1158015611a99573d6000803e3d6000fd5b505050506040513d6020811015611aaf57600080fd5b50511515611b07576040805160e560020a62461bcd0281526020600482015260266024820152600080516020612a88833981519152604482015260d160020a65103330b4b61702606482015290519081900360840190fd5b60408051828503815233602082015281518692600080516020612a68833981519152928290030190a2600382015460408051838152600160a060020a0390921660208301528051869260008051602061298883398151915292908290030190a250505050565b6000600282815481101515611b7e57fe5b60009182526020909120600a9091020190506002600982015460ff166004811115611ba557fe5b14611c03576040805160e560020a62461bcd02815260206004820152602f6024820152600080516020612a488339815191526044820152608960020a6e37103a3432903932b1b2b4bb32b91702606482015290519081900360840190fd5b600554600882015442031015611c51576040805160e560020a62461bcd02815260206004820181905260248201526000805160206129c8833981519152604482015290519081900360640190fd5b600781015415611c925760018101546007820154604051600160a060020a039092169181156108fc0291906000818181858888f15050600060078501555050505b61090c826001610907565b6060600080805b600254821015611d375784600160a060020a0316600283815481101515611cc757fe5b60009182526020909120600a9091020154600160a060020a03161480611d20575084600160a060020a0316600283815481101515611d0157fe5b600091825260209091206001600a909202010154600160a060020a0316145b15611d2c576001909201915b600190910190611ca4565b82604051908082528060200260200182016040528015611d61578160200160208202803883390190505b50935060009250600090505b600254811015611e155784600160a060020a0316600282815481101515611d9057fe5b60009182526020909120600a9091020154600160a060020a03161480611de9575084600160a060020a0316600282815481101515611dca57fe5b600091825260209091206001600a909202010154600160a060020a0316145b15611e0d578351600184019382918691908110611e0257fe5b602090810290910101525b600101611d6d565b505050919050565b6000600283815481101515611e2e57fe5b600091825260209091206001600a9092020190810154909150600160a060020a03163314611e94576040805160e560020a62461bcd02815260206004820181905260248201526000805160206129a8833981519152604482015290519081900360640190fd5b6000600982015460ff166004811115611ea957fe5b14611efe576040805160e560020a62461bcd02815260206004820152602660248201526000805160206129e8833981519152604482015260d160020a65383aba32b21702606482015290519081900360840190fd5b6002810154821115611f92576040805160e560020a62461bcd02815260206004820152604660248201527f54686520616d6f756e74207265696d6275727365642068617320746f2062652060448201527f6c657373207468616e206f7220657175616c20746f20746865207472616e7361606482015260d160020a6531ba34b7b71702608482015290519081900360a40190fd5b6002810180548390039055600381015481546040805160e060020a63a9059cbb028152600160a060020a039283166004820152602481018690529051919092169163a9059cbb9160448083019260209291908290030181600087803b158015611ffa57600080fd5b505af115801561200e573d6000803e3d6000fd5b505050506040513d602081101561202457600080fd5b5051151561207c576040805160e560020a62461bcd0281526020600482015260266024820152600080516020612a88833981519152604482015260d160020a65103330b4b61702606482015290519081900360840190fd5b6040805183815233602082015281518592600080516020612a68833981519152928290030190a2505050565b60008060008060008060006002898154811015156120c257fe5b60009182526020909120600a9091020196506002881115612122576040805160e560020a62461bcd02815260206004820152600f6024820152608960020a6e24b73b30b634b210393ab634b7339702604482015290519081900360640190fd5b60028701805460068901805460078b018054600095869055928590559390935560098a01805460ff191660041790559097509095509350600188141561226e578654604051600160a060020a039091169086156108fc029087906000818181858888f1505050600389015489546040805160e060020a63a9059cbb028152600160a060020a039283166004820152602481018c9052905191909216935063a9059cbb925060448083019260209291908290030181600087803b1580156121e757600080fd5b505af11580156121fb573d6000803e3d6000fd5b505050506040513d602081101561221157600080fd5b50511515612269576040805160e560020a62461bcd0281526020600482015260266024820152600080516020612a88833981519152604482015260d160020a65103330b4b61702606482015290519081900360840190fd5b612744565b6002881415612457576122808661297b565b6001880154604051919450600160a060020a03169085156108fc029086906000818181858888f15050506003890154600080546040805160e060020a63a9059cbb028152600160a060020a039283166004820152602481018a9052905191909316945063a9059cbb93506044808401936020939083900390910190829087803b15801561230c57600080fd5b505af1158015612320573d6000803e3d6000fd5b505050506040513d602081101561233657600080fd5b5050600387015460018801546040805160e060020a63a9059cbb028152600160a060020a039283166004820152868a0360248201529051919092169163a9059cbb9160448083019260209291908290030181600087803b15801561239957600080fd5b505af11580156123ad573d6000803e3d6000fd5b505050506040513d60208110156123c357600080fd5b5051151561241b576040805160e560020a62461bcd0281526020600482015260266024820152600080516020612a88833981519152604482015260d160020a65103330b4b61702606482015290519081900360840190fd5b600387015460408051858152600160a060020a03909216602083015280518b9260008051602061298883398151915292908290030190a2612744565b5050600280840490850461246a8161297b565b8754604051919450600160a060020a03169083156108fc029084906000818181858888f15050506001890154604051600160a060020a03909116925084156108fc02915084906000818181858888f15050506003890154600080546040805160e060020a63a9059cbb028152600160a060020a039283166004820152602481018a9052905191909316945063a9059cbb93506044808401936020939083900390910190829087803b15801561251e57600080fd5b505af1158015612532573d6000803e3d6000fd5b505050506040513d602081101561254857600080fd5b5050600387015460018801546040805160e060020a63a9059cbb028152600160a060020a03928316600482015286850360248201529051919092169163a9059cbb9160448083019260209291908290030181600087803b1580156125ab57600080fd5b505af11580156125bf573d6000803e3d6000fd5b505050506040513d60208110156125d557600080fd5b5051151561262d576040805160e560020a62461bcd0281526020600482015260266024820152600080516020612a88833981519152604482015260d160020a65103330b4b61702606482015290519081900360840190fd5b600387015487546040805160e060020a63a9059cbb028152600160a060020a039283166004820152602481018590529051919092169163a9059cbb9160448083019260209291908290030181600087803b15801561268a57600080fd5b505af115801561269e573d6000803e3d6000fd5b505050506040513d60208110156126b457600080fd5b5051151561270c576040805160e560020a62461bcd0281526020600482015260266024820152600080516020612a88833981519152604482015260d160020a65103330b4b61702606482015290519081900360840190fd5b600387015460408051858152600160a060020a03909216602083015280518b9260008051602061298883398151915292908290030190a25b505050505050505050565b600080600060028581548110151561276357fe5b60009182526020909120600a9091020160098101805491945060039160ff191660018302179055506003546040805160e060020a63c13517e102815260026004828101828152602484019485528154600019600182161561010002011683900460448501819052600160a060020a039096169563c13517e1958b959091606490910190849080156128355780601f1061280a57610100808354040283529160200191612835565b820191906000526020600020905b81548152906001019060200180831161281857829003601f168201915b505093505050506020604051808303818588803b15801561285557600080fd5b505af1158015612869573d6000803e3d6000fd5b50505050506040513d602081101561288057600080fd5b5051600584018181556000918252600660209081526040928390208890559054600354835189815292830189905283519193600160a060020a03909116927f74baab670a4015ab2f1b467c5252a96141a2573f2908e58a92081e80d3cfde3d929081900390910190a3838360060154111561292c57600683018054908590558354604051918690039350600160a060020a03169083156108fc029084906000818181858888f150505050505b838360070154111561297457506007820180549084905560018301546040519185900391600160a060020a039091169082156108fc029083906000818181858888f150505050505b5050505050565b600154612710910204905600f8de7813b1203a048b3de711014403024194f900ce5520fca0911046308c2ae55468652063616c6c6572206d757374206265207468652072656365697665722e54696d656f75742074696d6520686173206e6f7420706173736564207965742e546865207472616e73616374696f6e2073686f756c646e2774206265206469735468652063616c6c6572206d757374206265207468652073656e6465722e0000446973707574652068617320616c7265616479206265656e2063726561746564546865207472616e73616374696f6e206973206e6f742077616974696e67206fd1432ca9a38d944f01b256a411861b109bc4bfe200c40d7144e919a16b86a8a854686520607472616e73666572602066756e6374696f6e206d757374206e6f74c74b9f7dedf2887cd3c113b6d8da9cea19e55c1116e25f1f0e1b72d7543179b5a165627a7a72305820b848e648d51f4e9e812f8009755278b230091392a6e5ab45526030d34b4212c50029",
  "source": "/**\n *  @authors: [@remedcu]\n *  @reviewers: []\n *  @auditors: []\n *  @bounties: []\n *  @deployments: []\n *  @tools: [MythX]\n */\n\n/** @title Multiple Arbitrable ERC20 Token Transaction with Fee\n *  This is a contract for multiple arbitrated token transactions which can be reversed by an arbitrator.\n *  This can be used for buying goods, services and for paying freelancers.\n *  Parties are identified as \"sender\" and \"receiver\".\n *  A fee is associated with each successful payment to receiver.\n */\n\npragma solidity ^0.4.24;\n\nimport \"./Arbitrator.sol\";\nimport \"./IArbitrable.sol\";\n\nimport \"openzeppelin-solidity/contracts/token/ERC20/ERC20.sol\";\n\ncontract MultipleArbitrableTokenTransactionWithFee is IArbitrable {\n\n    // **************************** //\n    // *    Contract variables    * //\n    // **************************** //\n\n    uint8 constant AMOUNT_OF_CHOICES = 2;\n\n    enum Party {Sender, Receiver}\n    enum Status {NoDispute, WaitingSender, WaitingReceiver, DisputeCreated, Resolved}\n    enum RulingOptions {NoRuling, SenderWins, ReceiverWins}\n\n    struct Transaction {\n        address sender;\n        address receiver;\n        uint amount;\n        ERC20 token;\n        uint timeoutPayment; // Time in seconds after which the transaction can be automatically executed if not disputed.\n        uint disputeId; // If dispute exists, the ID of the dispute.\n        uint senderFee; // Total arbitration fees paid by the sender.\n        uint receiverFee; // Total arbitration fees paid by the receiver.\n        uint lastInteraction; // Last interaction for the dispute procedure.\n        Status status;\n    }\n\n    address public feeRecipient; // Address which receives a share of receiver payment.\n    uint public feeRecipientBasisPoint; // The share of fee to be received by the feeRecipient, down to 2 decimal places as 550 = 5.5%.\n    Transaction[] public transactions;\n    Arbitrator public arbitrator; // Address of the arbitrator contract.\n    bytes public arbitratorExtraData; // Extra data to set up the arbitration.\n    uint public feeTimeout; // Time in seconds a party can take to pay arbitration fees before being considered unresponding and lose the dispute.\n\n    mapping (uint => uint) public disputeIDtoTransactionID;\n\n    // **************************** //\n    // *          Events          * //\n    // **************************** //\n\n    /** @dev To be emitted when a party pays or reimburses the other.\n     *  @param _transactionID The index of the transaction.\n     *  @param _amount The amount paid.\n     *  @param _party The party that paid.\n     */\n    event Payment(uint indexed _transactionID, uint _amount, address _party);\n\n    /** @dev To be emitted when a fee is received by the feeRecipient in Token.\n     *  @param _transactionID The index of the transaction.\n     *  @param _amount The amount paid.\n     *  @param _token The Token Address.\n     */\n    event FeeRecipientPaymentInToken(uint indexed _transactionID, uint _amount, ERC20 _token);\n\n    /** @dev To be emitted when a feeRecipient is changed.\n     *  @param _oldFeeRecipient Previous feeRecipient.\n     *  @param _newFeeRecipient Current feeRecipient.\n     */\n    event FeeRecipientChanged(address indexed _oldFeeRecipient, address indexed _newFeeRecipient);\n\n    /** @dev Indicate that a party has to pay a fee or would otherwise be considered as losing.\n     *  @param _transactionID The index of the transaction.\n     *  @param _party The party who has to pay.\n     */\n    event HasToPayFee(uint indexed _transactionID, Party _party);\n\n    /** @dev Emitted when the final ruling of a dispute is given by the arbitrator.\n     *  @param _arbitrator The arbitrator giving the ruling.\n     *  @param _disputeID ID of the dispute in the Arbitrator contract.\n     *  @param _ruling The ruling which was given.\n     */\n    event Ruling(Arbitrator indexed _arbitrator, uint indexed _disputeID, uint _ruling);\n\n    /** @dev Emitted when a transaction is created.\n     *  @param _transactionID The index of the transaction.\n     *  @param _sender The address of the sender.\n     *  @param _receiver The address of the receiver.\n     *  @param _token The token address.\n     *  @param _amount The initial amount of the token.\n     */\n    event TransactionCreated(uint _transactionID, address indexed _sender, address indexed _receiver, ERC20 _token, uint _amount);\n\n    // **************************** //\n    // *    Arbitrable functions  * //\n    // *    Modifying the state   * //\n    // **************************** //\n\n    /** @dev Constructor.\n     *  @param _arbitrator The arbitrator of the contract.\n     *  @param _arbitratorExtraData Extra data for the arbitrator.\n     *  @param _feeRecipient Address which receives a share of receiver payment.\n     *  @param _feeRecipientBasisPoint The share of fee to be received by the feeRecipient, down to 2 decimal places as 550 = 5.5%.\n     *  @param _feeTimeout Arbitration fee timeout for the parties.\n     */\n    constructor (\n        Arbitrator _arbitrator,\n        bytes _arbitratorExtraData,\n        address _feeRecipient,\n        uint _feeRecipientBasisPoint,\n        uint _feeTimeout\n    ) public {\n        arbitrator = _arbitrator;\n        arbitratorExtraData = _arbitratorExtraData;\n        feeRecipient = _feeRecipient;\n        // Basis point being set higher than 10000 will result in underflow, but it's the responsibility of the deployer of the contract.\n        feeRecipientBasisPoint = _feeRecipientBasisPoint;\n        feeTimeout = _feeTimeout;\n    }\n\n    /** @dev Create a transaction. UNTRUSTED.\n     *  @param _amount The amount of tokens in this transaction.\n     *  @param _token The ERC20 token contract.\n     *  @param _timeoutPayment Time after which a party automatically loses a dispute.\n     *  @param _receiver The recipient of the transaction.\n     *  @param _metaEvidence Link to the meta-evidence.\n     *  @return The index of the transaction.\n     */\n    function createTransaction(\n        uint _amount,\n        ERC20 _token,\n        uint _timeoutPayment,\n        address _receiver,\n        string _metaEvidence\n    ) public returns (uint transactionIndex) {\n        // Transfers token from sender wallet to contract.\n        require(_token.transferFrom(msg.sender, address(this), _amount), \"Sender does not have enough approved funds.\");\n\n        transactions.push(Transaction({\n            sender: msg.sender,\n            receiver: _receiver,\n            amount: _amount,\n            token: _token,\n            timeoutPayment: _timeoutPayment,\n            disputeId: 0,\n            senderFee: 0,\n            receiverFee: 0,\n            lastInteraction: now,\n            status: Status.NoDispute\n        }));\n        emit MetaEvidence(transactions.length - 1, _metaEvidence);\n        emit TransactionCreated(transactions.length - 1, msg.sender, _receiver, _token, _amount);\n\n        return transactions.length - 1;\n    }\n\n    /** @dev Calculate the amount to be paid according to feeRecipientBasisPoint for a particular amount.\n     *  @param _amount Amount to pay.\n     */\n    function calculateFeeRecipientAmount(uint _amount) internal view returns(uint feeAmount){\n        feeAmount = (_amount * feeRecipientBasisPoint) / 10000;\n    }\n\n    /** @dev Change Fee Recipient.\n     *  @param _newFeeRecipient Address of the new Fee Recipient.\n     */\n    function changeFeeRecipient(address _newFeeRecipient) public {\n        require(msg.sender == feeRecipient, \"The caller must be the current Fee Recipient\");\n        feeRecipient = _newFeeRecipient;\n\n        emit FeeRecipientChanged(msg.sender, _newFeeRecipient);\n    }\n\n    /** @dev Pay receiver. To be called if the good or service is provided. UNTRUSTED.\n     *  @param _transactionID The index of the transaction.\n     *  @param _amount Amount to pay in tokens.\n     */\n    function pay(uint _transactionID, uint _amount) public {\n        Transaction storage transaction = transactions[_transactionID];\n        require(transaction.sender == msg.sender, \"The caller must be the sender.\");\n        require(transaction.status == Status.NoDispute, \"The transaction shouldn't be disputed.\");\n        require(_amount <= transaction.amount, \"The amount paid has to be less than or equal to the transaction.\");\n\n        transaction.amount -= _amount;\n        uint feeAmount = calculateFeeRecipientAmount(_amount);\n\n        // Tokens should not reenter or allow recipients to refuse the transfer.\n        transaction.token.transfer(feeRecipient, feeAmount); // It is the responsibility of the feeRecipient to accept Token.\n        require(transaction.token.transfer(transaction.receiver, _amount - feeAmount), \"The `transfer` function must not fail.\");\n\n        emit Payment(_transactionID, _amount - feeAmount, msg.sender);\n        emit FeeRecipientPaymentInToken(_transactionID, feeAmount, transaction.token);\n    }\n\n    /** @dev Reimburse sender. To be called if the good or service can't be fully provided. UNTRUSTED.\n     *  @param _transactionID The index of the transaction.\n     *  @param _amountReimbursed Amount to reimburse in tokens.\n     */\n    function reimburse(uint _transactionID, uint _amountReimbursed) public {\n        Transaction storage transaction = transactions[_transactionID];\n        require(transaction.receiver == msg.sender, \"The caller must be the receiver.\");\n        require(transaction.status == Status.NoDispute, \"The transaction shouldn't be disputed.\");\n        require(_amountReimbursed <= transaction.amount, \"The amount reimbursed has to be less than or equal to the transaction.\");\n\n        transaction.amount -= _amountReimbursed;\n        require(transaction.token.transfer(transaction.sender, _amountReimbursed), \"The `transfer` function must not fail.\");\n        emit Payment(_transactionID, _amountReimbursed, msg.sender);\n    }\n\n    /** @dev Transfer the transaction's amount to the receiver if the timeout has passed. UNTRUSTED.\n     *  @param _transactionID The index of the transaction.\n     */\n    function executeTransaction(uint _transactionID) public {\n        Transaction storage transaction = transactions[_transactionID];\n        require(now - transaction.lastInteraction >= transaction.timeoutPayment, \"The timeout has not passed yet.\");\n        require(transaction.status == Status.NoDispute, \"The transaction shouldn't be disputed.\");\n\n        uint amount = transaction.amount;\n        transaction.amount = 0;\n        transaction.status = Status.Resolved;\n        uint feeAmount = calculateFeeRecipientAmount(amount);\n\n        transaction.token.transfer(feeRecipient, feeAmount);\n        require(transaction.token.transfer(transaction.receiver, amount - feeAmount), \"The `transfer` function must not fail.\");\n\n        emit Payment(_transactionID, amount - feeAmount, transaction.sender);\n        emit FeeRecipientPaymentInToken(_transactionID, feeAmount, transaction.token);\n    }\n\n    /** @dev Reimburse sender if receiver fails to pay the fee. UNTRUSTED.\n     *  @param _transactionID The index of the transaction.\n     */\n    function timeOutBySender(uint _transactionID) public {\n        Transaction storage transaction = transactions[_transactionID];\n        require(transaction.status == Status.WaitingReceiver, \"The transaction is not waiting on the receiver.\");\n        require(now - transaction.lastInteraction >= feeTimeout, \"Timeout time has not passed yet.\");\n\n        if (transaction.receiverFee != 0) {\n            transaction.receiver.send(transaction.receiverFee);\n            transaction.receiverFee = 0;\n        }\n        executeRuling(_transactionID, uint(RulingOptions.SenderWins));\n    }\n\n    /** @dev Pay receiver if sender fails to pay the fee. UNTRUSTED.\n     *  @param _transactionID The index of the transaction.\n     */\n    function timeOutByReceiver(uint _transactionID) public {\n        Transaction storage transaction = transactions[_transactionID];\n        require(transaction.status == Status.WaitingSender, \"The transaction is not waiting on the sender.\");\n        require(now - transaction.lastInteraction >= feeTimeout, \"Timeout time has not passed yet.\");\n\n        if (transaction.senderFee != 0) {\n            transaction.sender.send(transaction.senderFee);\n            transaction.senderFee = 0;\n        }\n        executeRuling(_transactionID, uint(RulingOptions.ReceiverWins));\n    }\n\n    /** @dev Pay the arbitration fee to raise a dispute. To be called by the sender. UNTRUSTED.\n     *  Note that the arbitrator can have `createDispute` throw, which will make this function throw and therefore lead to a party being timed-out.\n     *  This is not a vulnerability as the arbitrator can rule in favor of one party anyway.\n     *  @param _transactionID The index of the transaction.\n     */\n    function payArbitrationFeeBySender(uint _transactionID) public payable {\n        Transaction storage transaction = transactions[_transactionID];\n        uint arbitrationCost = arbitrator.arbitrationCost(arbitratorExtraData);\n        require(transaction.status < Status.DisputeCreated, \"Dispute has already been created.\");\n        require(msg.sender == transaction.sender, \"The caller must be the sender.\");\n\n        transaction.senderFee += msg.value;\n        // Require that the total paid to be at least the arbitration cost.\n        require(transaction.senderFee >= arbitrationCost, \"The sender fee must cover arbitration costs.\");\n\n        transaction.lastInteraction = now;\n        // The receiver still has to pay. This can also happen if he has paid, but `arbitrationCost` has increased.\n        if (transaction.receiverFee < arbitrationCost) {\n            transaction.status = Status.WaitingReceiver;\n            emit HasToPayFee(_transactionID, Party.Receiver);\n        } else { // The receiver has also paid the fee. We create the dispute.\n            raiseDispute(_transactionID, arbitrationCost);\n        }\n    }\n\n    /** @dev Pay the arbitration fee to raise a dispute. To be called by the receiver. UNTRUSTED.\n     *  Note that this function mirrors payArbitrationFeeBySender.\n     *  @param _transactionID The index of the transaction.\n     */\n    function payArbitrationFeeByReceiver(uint _transactionID) public payable {\n        Transaction storage transaction = transactions[_transactionID];\n        uint arbitrationCost = arbitrator.arbitrationCost(arbitratorExtraData);\n        require(transaction.status < Status.DisputeCreated, \"Dispute has already been created.\");\n        require(msg.sender == transaction.receiver, \"The caller must be the receiver.\");\n\n        transaction.receiverFee += msg.value;\n        // Require that the total paid to be at least the arbitration cost.\n        require(transaction.receiverFee >= arbitrationCost, \"The receiver fee must cover arbitration costs.\");\n\n        transaction.lastInteraction = now;\n        // The sender still has to pay. This can also happen if he has paid, but arbitrationCost has increased.\n        if (transaction.senderFee < arbitrationCost) {\n            transaction.status = Status.WaitingSender;\n            emit HasToPayFee(_transactionID, Party.Sender);\n        } else { // The sender has also paid the fee. We create the dispute.\n            raiseDispute(_transactionID, arbitrationCost);\n        }\n    }\n\n    /** @dev Create a dispute. UNTRUSTED.\n     *  @param _transactionID The index of the transaction.\n     *  @param _arbitrationCost Amount to pay the arbitrator.\n     */\n    function raiseDispute(uint _transactionID, uint _arbitrationCost) internal {\n        Transaction storage transaction = transactions[_transactionID];\n        transaction.status = Status.DisputeCreated;\n        transaction.disputeId = arbitrator.createDispute.value(_arbitrationCost)(AMOUNT_OF_CHOICES, arbitratorExtraData);\n        disputeIDtoTransactionID[transaction.disputeId] = _transactionID;\n        emit Dispute(arbitrator, transaction.disputeId, _transactionID, _transactionID);\n\n        // Refund sender if it overpaid.\n        if (transaction.senderFee > _arbitrationCost) {\n            uint extraFeeSender = transaction.senderFee - _arbitrationCost;\n            transaction.senderFee = _arbitrationCost;\n            transaction.sender.send(extraFeeSender);\n        }\n\n        // Refund receiver if it overpaid.\n        if (transaction.receiverFee > _arbitrationCost) {\n            uint extraFeeReceiver = transaction.receiverFee - _arbitrationCost;\n            transaction.receiverFee = _arbitrationCost;\n            transaction.receiver.send(extraFeeReceiver);\n        }\n    }\n\n    /** @dev Submit a reference to evidence. EVENT.\n     *  @param _transactionID The index of the transaction.\n     *  @param _evidence A link to an evidence using its URI.\n     */\n    function submitEvidence(uint _transactionID, string _evidence) public {\n        Transaction storage transaction = transactions[_transactionID];\n        require(\n            msg.sender == transaction.receiver || msg.sender == transaction.sender,\n            \"The caller must be the receiver or the sender.\"\n        );\n        require(\n            transaction.status < Status.Resolved,\n            \"Must not send evidence if the dispute is resolved.\"\n        );\n\n        emit Evidence(arbitrator, _transactionID, msg.sender, _evidence);\n    }\n\n    /** @dev Appeal an appealable ruling. UNTRUSTED.\n     *  Transfer the funds to the arbitrator.\n     *  Note that no checks are required as the checks are done by the arbitrator.\n     *  @param _transactionID The index of the transaction.\n     */\n    function appeal(uint _transactionID) public payable {\n        Transaction storage transaction = transactions[_transactionID];\n\n        arbitrator.appeal.value(msg.value)(transaction.disputeId, arbitratorExtraData);\n    }\n\n    /** @dev Give a ruling for a dispute. Must be called by the arbitrator to enforce the final ruling.\n     *  The purpose of this function is to ensure that the address calling it has the right to rule on the contract.\n     *  @param _disputeID ID of the dispute in the Arbitrator contract.\n     *  @param _ruling Ruling given by the arbitrator. Note that 0 is reserved for \"Not able/wanting to make a decision\".\n     */\n    function rule(uint _disputeID, uint _ruling) public {\n        uint transactionID = disputeIDtoTransactionID[_disputeID];\n        Transaction storage transaction = transactions[transactionID];\n        require(msg.sender == address(arbitrator), \"The caller must be the arbitrator.\");\n        require(transaction.status == Status.DisputeCreated, \"The dispute has already been resolved.\");\n\n        emit Ruling(Arbitrator(msg.sender), _disputeID, _ruling);\n\n        executeRuling(transactionID, _ruling);\n    }\n\n    /** @dev Execute a ruling of a dispute. It reimburses the fee to the winning party.\n     *  @param _transactionID The index of the transaction.\n     *  @param _ruling Ruling given by the arbitrator. 1: Reimburse the receiver. 2: Pay the sender.\n     */\n    function executeRuling(uint _transactionID, uint _ruling) internal {\n        Transaction storage transaction = transactions[_transactionID];\n        require(_ruling <= AMOUNT_OF_CHOICES, \"Invalid ruling.\");\n\n        uint amount = transaction.amount;\n        uint senderArbitrationFee = transaction.senderFee;\n        uint receiverArbitrationFee = transaction.receiverFee;\n\n        transaction.amount = 0;\n        transaction.senderFee = 0;\n        transaction.receiverFee = 0;\n        transaction.status = Status.Resolved;\n\n        uint feeAmount;\n\n        // Give the arbitration fee back.\n        // Note that we use `send` to prevent a party from blocking the execution.\n        if (_ruling == uint(RulingOptions.SenderWins)) {\n            transaction.sender.send(senderArbitrationFee);\n            require(transaction.token.transfer(transaction.sender, amount), \"The `transfer` function must not fail.\");\n        } else if (_ruling == uint(RulingOptions.ReceiverWins)) {\n            feeAmount = calculateFeeRecipientAmount(amount);\n\n            transaction.receiver.send(receiverArbitrationFee);\n            transaction.token.transfer(feeRecipient, feeAmount);\n            require(transaction.token.transfer(transaction.receiver, amount - feeAmount), \"The `transfer` function must not fail.\");\n\n            emit FeeRecipientPaymentInToken(_transactionID, feeAmount, transaction.token);\n        } else {\n            // `senderFee` and `receiverFee` are equal to the arbitration cost.\n            uint splitArbitration = senderArbitrationFee / 2;\n            uint splitAmount = amount / 2;\n            feeAmount = calculateFeeRecipientAmount(splitAmount);\n\n            transaction.sender.send(splitArbitration);\n            transaction.receiver.send(splitArbitration);\n            // In the case of an uneven token amount, one basic token unit can be burnt.\n            transaction.token.transfer(feeRecipient, feeAmount);\n            require(transaction.token.transfer(transaction.receiver, splitAmount - feeAmount), \"The `transfer` function must not fail.\");\n            require(transaction.token.transfer(transaction.sender, splitAmount), \"The `transfer` function must not fail.\");\n\n            emit FeeRecipientPaymentInToken(_transactionID, feeAmount, transaction.token);\n        }\n    }\n\n    // **************************** //\n    // *     Constant getters     * //\n    // **************************** //\n\n    /** @dev Getter to know the count of transactions.\n     *  @return countTransactions The count of transactions.\n     */\n    function getCountTransactions() public view returns (uint countTransactions) {\n        return transactions.length;\n    }\n\n    /** @dev Get IDs for transactions where the specified address is the receiver and/or the sender.\n     *  This function must be used by the UI and not by other smart contracts.\n     *  Note that the complexity is O(t), where t is amount of arbitrable transactions.\n     *  @param _address The specified address.\n     *  @return transactionIDs The transaction IDs.\n     */\n    function getTransactionIDsByAddress(address _address) public view returns (uint[] transactionIDs) {\n        uint count = 0;\n        for (uint i = 0; i < transactions.length; i++) {\n            if (transactions[i].sender == _address || transactions[i].receiver == _address)\n                count++;\n        }\n\n        transactionIDs = new uint[](count);\n\n        count = 0;\n\n        for (uint j = 0; j < transactions.length; j++) {\n            if (transactions[j].sender == _address || transactions[j].receiver == _address)\n                transactionIDs[count++] = j;\n        }\n    }\n}\n",
  "sourcePath": "/home/bruno/Proyectos/Cripto/kleros/kleros-interaction/contracts/standard/arbitration/MultipleArbitrableTokenTransactionWithFee.sol",
  "compiler": {
    "name": "solc",
    "version": "0.4.26+commit.4563c3fc.Emscripten.clang"
  },
  "schemaVersion": "2.0.3",
  "updatedAt": "2020-10-07T15:52:41.030Z"
}